{
  "contractName": "DefiMarket",
  "abi": [
    {
      "inputs": [],
      "stateMutability": "nonpayable",
      "type": "constructor"
    },
    {
      "inputs": [
        {
          "internalType": "address",
          "name": "",
          "type": "address"
        }
      ],
      "name": "availableBalances",
      "outputs": [
        {
          "internalType": "uint256",
          "name": "",
          "type": "uint256"
        }
      ],
      "stateMutability": "view",
      "type": "function"
    },
    {
      "inputs": [
        {
          "internalType": "address",
          "name": "",
          "type": "address"
        },
        {
          "internalType": "uint256",
          "name": "",
          "type": "uint256"
        }
      ],
      "name": "buyerPendingPurchases",
      "outputs": [
        {
          "internalType": "uint256",
          "name": "priceInWei",
          "type": "uint256"
        },
        {
          "internalType": "uint256",
          "name": "listingId",
          "type": "uint256"
        },
        {
          "internalType": "address payable",
          "name": "ethAddrOfSellers",
          "type": "address"
        }
      ],
      "stateMutability": "view",
      "type": "function"
    },
    {
      "inputs": [
        {
          "internalType": "uint256",
          "name": "",
          "type": "uint256"
        },
        {
          "internalType": "uint256",
          "name": "",
          "type": "uint256"
        }
      ],
      "name": "listingIdToBuyersAddress",
      "outputs": [
        {
          "internalType": "address",
          "name": "",
          "type": "address"
        }
      ],
      "stateMutability": "view",
      "type": "function"
    },
    {
      "inputs": [],
      "name": "minter",
      "outputs": [
        {
          "internalType": "address payable",
          "name": "",
          "type": "address"
        }
      ],
      "stateMutability": "view",
      "type": "function"
    },
    {
      "stateMutability": "payable",
      "type": "receive"
    },
    {
      "inputs": [
        {
          "internalType": "address payable",
          "name": "buyer",
          "type": "address"
        },
        {
          "internalType": "uint256",
          "name": "listingId",
          "type": "uint256"
        }
      ],
      "name": "wakeup",
      "outputs": [],
      "stateMutability": "payable",
      "type": "function"
    },
    {
      "inputs": [
        {
          "internalType": "address payable",
          "name": "ethAddressOfSeller",
          "type": "address"
        },
        {
          "internalType": "uint256",
          "name": "listingId",
          "type": "uint256"
        }
      ],
      "name": "addTradeOffer",
      "outputs": [],
      "stateMutability": "payable",
      "type": "function"
    },
    {
      "inputs": [
        {
          "internalType": "address",
          "name": "buyer",
          "type": "address"
        }
      ],
      "name": "getNumberOfPendingPurchasesForBuyer",
      "outputs": [
        {
          "internalType": "uint256",
          "name": "",
          "type": "uint256"
        }
      ],
      "stateMutability": "view",
      "type": "function"
    },
    {
      "inputs": [
        {
          "internalType": "uint256",
          "name": "listingId",
          "type": "uint256"
        }
      ],
      "name": "getNumberOfBuyingOfferForListingId",
      "outputs": [
        {
          "internalType": "uint256",
          "name": "",
          "type": "uint256"
        }
      ],
      "stateMutability": "view",
      "type": "function"
    },
    {
      "inputs": [],
      "name": "withdrawMyAvailableBalance",
      "outputs": [],
      "stateMutability": "payable",
      "type": "function"
    },
    {
      "inputs": [],
      "name": "getContractBalance",
      "outputs": [
        {
          "internalType": "uint256",
          "name": "",
          "type": "uint256"
        }
      ],
      "stateMutability": "view",
      "type": "function"
    }
  ],
  "bytecode": "0x6080604052600360005534801561001557600080fd5b5033600160006101000a81548173ffffffffffffffffffffffffffffffffffffffff021916908373ffffffffffffffffffffffffffffffffffffffff160217905550611148806100666000396000f3fe6080604052600436106100955760003560e01c806374d739801161005957806374d739801461018f5780639f7478c5146101ab578063a184d12e146101e8578063cdaa3820146101f2578063dc3774b31461022f5761009c565b806307546172146100a15780630d6f4984146100cc578063119f70a11461010b5780636f9fb98a1461014857806372d5f36d146101735761009c565b3661009c57005b600080fd5b3480156100ad57600080fd5b506100b661026c565b6040516100c39190610cea565b60405180910390f35b3480156100d857600080fd5b506100f360048036038101906100ee9190610b8c565b610292565b60405161010293929190610d80565b60405180910390f35b34801561011757600080fd5b50610132600480360381019061012d9190610bcc565b6102f9565b60405161013f9190610d65565b60405180910390f35b34801561015457600080fd5b5061015d61031e565b60405161016a9190610d65565b60405180910390f35b61018d60048036038101906101889190610b4c565b610326565b005b6101a960048036038101906101a49190610b4c565b61056a565b005b3480156101b757600080fd5b506101d260048036038101906101cd9190610bf9565b61091e565b6040516101df9190610ccf565b60405180910390f35b6101f061096c565b005b3480156101fe57600080fd5b5061021960048036038101906102149190610b1f565b610a39565b6040516102269190610d65565b60405180910390f35b34801561023b57600080fd5b5061025660048036038101906102519190610b1f565b610a8a565b6040516102639190610d65565b60405180910390f35b600160009054906101000a900473ffffffffffffffffffffffffffffffffffffffff1681565b600360205281600052604060002081815481106102ae57600080fd5b9060005260206000209060030201600091509150508060000154908060010154908060020160009054906101000a900473ffffffffffffffffffffffffffffffffffffffff16905083565b6000806004600084815260200190815260200160002080549050905080915050919050565b600047905090565b600034141561036a576040517f08c379a000000000000000000000000000000000000000000000000000000000815260040161036190610d05565b60405180910390fd5b6000610375826102f9565b146103b5576040517f08c379a00000000000000000000000000000000000000000000000000000000081526004016103ac90610d25565b60405180910390fd5b3073ffffffffffffffffffffffffffffffffffffffff166108fc349081150290604051600060405180830381858888f193505050501580156103fb573d6000803e3d6000fd5b50600360003373ffffffffffffffffffffffffffffffffffffffff1673ffffffffffffffffffffffffffffffffffffffff16815260200190815260200160002060405180606001604052803481526020018381526020018473ffffffffffffffffffffffffffffffffffffffff168152509080600181540180825580915050600190039060005260206000209060030201600090919091909150600082015181600001556020820151816001015560408201518160020160006101000a81548173ffffffffffffffffffffffffffffffffffffffff021916908373ffffffffffffffffffffffffffffffffffffffff160217905550505060046000828152602001908152602001600020339080600181540180825580915050600190039060005260206000200160009091909190916101000a81548173ffffffffffffffffffffffffffffffffffffffff021916908373ffffffffffffffffffffffffffffffffffffffff1602179055505050565b600160009054906101000a900473ffffffffffffffffffffffffffffffffffffffff1673ffffffffffffffffffffffffffffffffffffffff163373ffffffffffffffffffffffffffffffffffffffff16146105fa576040517f08c379a00000000000000000000000000000000000000000000000000000000081526004016105f190610d45565b60405180910390fd5b600080600080600360008773ffffffffffffffffffffffffffffffffffffffff1673ffffffffffffffffffffffffffffffffffffffff16815260200190815260200160002080549050905060005b8181101561075f576000600360008973ffffffffffffffffffffffffffffffffffffffff1673ffffffffffffffffffffffffffffffffffffffff16815260200190815260200160002082815481106106a3576106a2610fd2565b5b906000526020600020906003020160405180606001604052908160008201548152602001600182015481526020016002820160009054906101000a900473ffffffffffffffffffffffffffffffffffffffff1673ffffffffffffffffffffffffffffffffffffffff1673ffffffffffffffffffffffffffffffffffffffff16815250509050868160200151141561074b5780600001519550806040015194508193505061075f565b50808061075790610f2b565b915050610648565b50600360008773ffffffffffffffffffffffffffffffffffffffff1673ffffffffffffffffffffffffffffffffffffffff16815260200190815260200160002082815481106107b1576107b0610fd2565b5b906000526020600020906003020160008082016000905560018201600090556002820160006101000a81549073ffffffffffffffffffffffffffffffffffffffff021916905550506004600086815260200190815260200160002060006108189190610aa2565b600060646000548661082a9190610e4f565b6108349190610e1e565b9050600081866108449190610ea9565b905080600260008773ffffffffffffffffffffffffffffffffffffffff1673ffffffffffffffffffffffffffffffffffffffff16815260200190815260200160002060008282546108959190610dc8565b925050819055508160026000600160009054906101000a900473ffffffffffffffffffffffffffffffffffffffff1673ffffffffffffffffffffffffffffffffffffffff1673ffffffffffffffffffffffffffffffffffffffff168152602001908152602001600020600082825461090d9190610dc8565b925050819055505050505050505050565b6004602052816000526040600020818154811061093a57600080fd5b906000526020600020016000915091509054906101000a900473ffffffffffffffffffffffffffffffffffffffff1681565b3073ffffffffffffffffffffffffffffffffffffffff166108fc600260003373ffffffffffffffffffffffffffffffffffffffff1673ffffffffffffffffffffffffffffffffffffffff168152602001908152602001600020549081150290604051600060405180830381858888f193505050501580156109f1573d6000803e3d6000fd5b506000600260003373ffffffffffffffffffffffffffffffffffffffff1673ffffffffffffffffffffffffffffffffffffffff16815260200190815260200160002081905550565b600080600360008473ffffffffffffffffffffffffffffffffffffffff1673ffffffffffffffffffffffffffffffffffffffff16815260200190815260200160002080549050905080915050919050565b60026020528060005260406000206000915090505481565b5080546000825590600052602060002090810190610ac09190610ac3565b50565b5b80821115610adc576000816000905550600101610ac4565b5090565b600081359050610aef816110cd565b92915050565b600081359050610b04816110e4565b92915050565b600081359050610b19816110fb565b92915050565b600060208284031215610b3557610b34611001565b5b6000610b4384828501610ae0565b91505092915050565b60008060408385031215610b6357610b62611001565b5b6000610b7185828601610af5565b9250506020610b8285828601610b0a565b9150509250929050565b60008060408385031215610ba357610ba2611001565b5b6000610bb185828601610ae0565b9250506020610bc285828601610b0a565b9150509250929050565b600060208284031215610be257610be1611001565b5b6000610bf084828501610b0a565b91505092915050565b60008060408385031215610c1057610c0f611001565b5b6000610c1e85828601610b0a565b9250506020610c2f85828601610b0a565b9150509250929050565b610c4281610eef565b82525050565b610c5181610edd565b82525050565b6000610c64602383610db7565b9150610c6f82611006565b604082019050919050565b6000610c87602783610db7565b9150610c9282611055565b604082019050919050565b6000610caa601d83610db7565b9150610cb5826110a4565b602082019050919050565b610cc981610f21565b82525050565b6000602082019050610ce46000830184610c48565b92915050565b6000602082019050610cff6000830184610c39565b92915050565b60006020820190508181036000830152610d1e81610c57565b9050919050565b60006020820190508181036000830152610d3e81610c7a565b9050919050565b60006020820190508181036000830152610d5e81610c9d565b9050919050565b6000602082019050610d7a6000830184610cc0565b92915050565b6000606082019050610d956000830186610cc0565b610da26020830185610cc0565b610daf6040830184610c39565b949350505050565b600082825260208201905092915050565b6000610dd382610f21565b9150610dde83610f21565b9250827fffffffffffffffffffffffffffffffffffffffffffffffffffffffffffffffff03821115610e1357610e12610f74565b5b828201905092915050565b6000610e2982610f21565b9150610e3483610f21565b925082610e4457610e43610fa3565b5b828204905092915050565b6000610e5a82610f21565b9150610e6583610f21565b9250817fffffffffffffffffffffffffffffffffffffffffffffffffffffffffffffffff0483118215151615610e9e57610e9d610f74565b5b828202905092915050565b6000610eb482610f21565b9150610ebf83610f21565b925082821015610ed257610ed1610f74565b5b828203905092915050565b6000610ee882610f01565b9050919050565b6000610efa82610f01565b9050919050565b600073ffffffffffffffffffffffffffffffffffffffff82169050919050565b6000819050919050565b6000610f3682610f21565b91507fffffffffffffffffffffffffffffffffffffffffffffffffffffffffffffffff821415610f6957610f68610f74565b5b600182019050919050565b7f4e487b7100000000000000000000000000000000000000000000000000000000600052601160045260246000fd5b7f4e487b7100000000000000000000000000000000000000000000000000000000600052601260045260246000fd5b7f4e487b7100000000000000000000000000000000000000000000000000000000600052603260045260246000fd5b600080fd5b7f596f75206e65656420746f2073656e642045544820746f20627579206120736b60008201527f696e210000000000000000000000000000000000000000000000000000000000602082015250565b7f546865726520697320616c726561647920616e206f6666657220666f7220746860008201527f6973206974656d00000000000000000000000000000000000000000000000000602082015250565b7f4f6e6c7920746865206f776e65722063616e2063616c6c20746869732e000000600082015250565b6110d681610edd565b81146110e157600080fd5b50565b6110ed81610eef565b81146110f857600080fd5b50565b61110481610f21565b811461110f57600080fd5b5056fea264697066735822122045db92c912e1b49c9ecc1cf5664881413030168ccd357c8730c7b3511f00dd8a64736f6c63430008060033",
  "immutableReferences": {},
  "source": "// SPDX-License-Identifier: MIT\npragma solidity ^0.8.6;\n\ncontract DefiMarket {\n\n    uint feesPercentage = 3;\n\n    address payable public minter;\n\n    mapping(address => uint256) public availableBalances;\n\n    struct TradeOffer {\n        uint256 priceInWei;\n        uint256 listingId;\n        address payable ethAddrOfSellers;\n    }\n\n    mapping(address => TradeOffer[]) public buyerPendingPurchases;\n\n    mapping(uint256 => address[]) public listingIdToBuyersAddress;\n\n    constructor() {\n        minter = payable(msg.sender);\n    }\n\n    function wakeup(address payable buyer, uint256 listingId) public payable {\n        require(msg.sender == minter, \"Only the owner can call this.\");\n\n        uint256 amountToSend = 0;\n        address payable receiver = payable(address(0));\n        uint256 itemIndex = 0;\n\n        uint256 length = buyerPendingPurchases[buyer].length;\n        for (uint256 i = 0; i < length; i++) {\n            TradeOffer memory offer = buyerPendingPurchases[buyer][i];\n            if (offer.listingId == listingId) {\n               amountToSend = offer.priceInWei; \n               receiver = offer.ethAddrOfSellers;\n               itemIndex = i;\n               break;\n            }\n        }\n\n        delete buyerPendingPurchases[buyer][itemIndex];\n\n        // refund when oders have an offer but not accepted\n        // TODO(marco) remove others offer before deleting here and money in their balance\n        delete listingIdToBuyersAddress[listingId];\n\n        // Put the money in the good balance\n        // And take the fees\n        uint feesAmount = amountToSend * feesPercentage / 100;\n        uint amountWithfeesRemoved = amountToSend - feesAmount;\n    \n        availableBalances[receiver] += amountWithfeesRemoved;\n        availableBalances[minter] += feesAmount;\n    }\n\n    // Idea for later(marco) if the is no msg.value and if there is a parameter with the wei to use for the item than take it in the balance\n    // TODO(marco) accept only one trade per item\n    function addTradeOffer(address payable ethAddressOfSeller, uint256 listingId)\n        public\n        payable\n    {\n        require(msg.value != 0, \"You need to send ETH to buy a skin!\");\n\n        require(getNumberOfBuyingOfferForListingId(listingId) == 0, \"There is already an offer for this item\");\n\n        //uint nbOfPendingPurchases = getNumberOfPendingPurchasesForBuyer(msg.sender);\n        //for (uint i = 0; i < nbOfPendingPurchases; i++) {\n        //    if (listingId == buyerPendingPurchases[msg.sender][i].listingId) {\n        //        require(false, \"Trade offer already exist for this item\");\n        //    }\n        //} \n\n        payable(address(this)).transfer(msg.value);\n\n        buyerPendingPurchases[msg.sender].push(\n            TradeOffer({priceInWei: msg.value, listingId: listingId, ethAddrOfSellers: ethAddressOfSeller})\n        );\n\n        listingIdToBuyersAddress[listingId].push(msg.sender);\n    }\n\n    function getNumberOfPendingPurchasesForBuyer(address buyer) public view returns (uint)\n    {\n        uint length = buyerPendingPurchases[buyer].length;\n        return length;\n    }\n\n    function getNumberOfBuyingOfferForListingId(uint256 listingId) public view returns (uint)\n    {\n        uint length = listingIdToBuyersAddress[listingId].length;\n        return length;\n    }\n\n    function withdrawMyAvailableBalance() public payable {\n        payable(address(this)).transfer(availableBalances[msg.sender]);\n        availableBalances[msg.sender] = 0;\n    }\n\n    function getContractBalance() public view returns (uint256) {\n        return address(this).balance;\n    }\n\n    receive() external payable {}\n}\n",
  "sourcePath": "/home/marc-olivier/Projects/market/packages/smart-contracts/contracts/DefiMarket.sol",
  "compiler": {
    "name": "solc",
    "version": "0.8.6+commit.11564f7e.Emscripten.clang"
  },
  "schemaVersion": "3.4.1",
  "updatedAt": "2021-09-06T14:19:41.722Z",
  "devdoc": {
    "kind": "dev",
    "methods": {},
    "version": 1
  },
  "userdoc": {
    "kind": "user",
    "methods": {},
    "version": 1
  }
}