{
  "contractName": "DefiMarket",
  "abi": [
    {
      "inputs": [],
      "stateMutability": "nonpayable",
      "type": "constructor"
    },
    {
      "inputs": [
        {
          "internalType": "address",
          "name": "",
          "type": "address"
        },
        {
          "internalType": "uint256",
          "name": "",
          "type": "uint256"
        }
      ],
      "name": "buyerPendingPurchases",
      "outputs": [
        {
          "internalType": "uint256",
          "name": "priceInWei",
          "type": "uint256"
        },
        {
          "internalType": "uint256",
          "name": "listingId",
          "type": "uint256"
        },
        {
          "internalType": "address payable",
          "name": "ethAddrOfSellers",
          "type": "address"
        }
      ],
      "stateMutability": "view",
      "type": "function"
    },
    {
      "inputs": [
        {
          "internalType": "uint256",
          "name": "",
          "type": "uint256"
        },
        {
          "internalType": "uint256",
          "name": "",
          "type": "uint256"
        }
      ],
      "name": "listingIdToBuyersAddress",
      "outputs": [
        {
          "internalType": "address",
          "name": "",
          "type": "address"
        }
      ],
      "stateMutability": "view",
      "type": "function"
    },
    {
      "inputs": [],
      "name": "minter",
      "outputs": [
        {
          "internalType": "address payable",
          "name": "",
          "type": "address"
        }
      ],
      "stateMutability": "view",
      "type": "function"
    },
    {
      "stateMutability": "payable",
      "type": "receive"
    },
    {
      "inputs": [
        {
          "internalType": "address payable",
          "name": "buyer",
          "type": "address"
        },
        {
          "internalType": "uint256",
          "name": "listingId",
          "type": "uint256"
        }
      ],
      "name": "wakeup",
      "outputs": [],
      "stateMutability": "payable",
      "type": "function"
    },
    {
      "inputs": [
        {
          "internalType": "address payable",
          "name": "ethAddressOfSeller",
          "type": "address"
        },
        {
          "internalType": "uint256",
          "name": "listingId",
          "type": "uint256"
        }
      ],
      "name": "addTradeOffer",
      "outputs": [],
      "stateMutability": "payable",
      "type": "function"
    },
    {
      "inputs": [
        {
          "internalType": "address",
          "name": "buyer",
          "type": "address"
        }
      ],
      "name": "getNumberOfPendingPurchasesForBuyer",
      "outputs": [
        {
          "internalType": "uint256",
          "name": "",
          "type": "uint256"
        }
      ],
      "stateMutability": "view",
      "type": "function"
    },
    {
      "inputs": [
        {
          "internalType": "uint256",
          "name": "listingId",
          "type": "uint256"
        }
      ],
      "name": "getNumberOfBuyingOfferForListingId",
      "outputs": [
        {
          "internalType": "uint256",
          "name": "",
          "type": "uint256"
        }
      ],
      "stateMutability": "view",
      "type": "function"
    },
    {
      "inputs": [
        {
          "internalType": "uint256",
          "name": "amount",
          "type": "uint256"
        }
      ],
      "name": "withdraw",
      "outputs": [],
      "stateMutability": "payable",
      "type": "function"
    },
    {
      "inputs": [],
      "name": "getContractBalance",
      "outputs": [
        {
          "internalType": "uint256",
          "name": "",
          "type": "uint256"
        }
      ],
      "stateMutability": "view",
      "type": "function"
    },
    {
      "inputs": [],
      "name": "deposit",
      "outputs": [],
      "stateMutability": "payable",
      "type": "function"
    }
  ],
  "bytecode": "0x608060405234801561001057600080fd5b50336000806101000a81548173ffffffffffffffffffffffffffffffffffffffff021916908373ffffffffffffffffffffffffffffffffffffffff160217905550610eda806100606000396000f3fe6080604052600436106100955760003560e01c806372d5f36d1161005957806372d5f36d1461018f57806374d73980146101ab578063a2e1c58b146101c7578063cdaa382014610204578063d0e30db0146102415761009c565b806307546172146100a15780630d6f4984146100cc578063119f70a11461010b5780632e1a7d4d146101485780636f9fb98a146101645761009c565b3661009c57005b600080fd5b3480156100ad57600080fd5b506100b661024b565b6040516100c39190610be6565b60405180910390f35b3480156100d857600080fd5b506100f360048036038101906100ee9190610a88565b61026f565b60405161010293929190610c7c565b60405180910390f35b34801561011757600080fd5b50610132600480360381019061012d9190610ac8565b6102d6565b60405161013f9190610c61565b60405180910390f35b610162600480360381019061015d9190610ac8565b6102fb565b005b34801561017057600080fd5b506101796103d3565b6040516101869190610c61565b60405180910390f35b6101a960048036038101906101a49190610a48565b6103db565b005b6101c560048036038101906101c09190610a48565b6105d4565b005b3480156101d357600080fd5b506101ee60048036038101906101e99190610af5565b6108b0565b6040516101fb9190610bcb565b60405180910390f35b34801561021057600080fd5b5061022b60048036038101906102269190610a1b565b6108fe565b6040516102389190610c61565b60405180910390f35b61024961094f565b005b60008054906101000a900473ffffffffffffffffffffffffffffffffffffffff1681565b6001602052816000526040600020818154811061028b57600080fd5b9060005260206000209060030201600091509150508060000154908060010154908060020160009054906101000a900473ffffffffffffffffffffffffffffffffffffffff16905083565b6000806002600084815260200190815260200160002080549050905080915050919050565b60008054906101000a900473ffffffffffffffffffffffffffffffffffffffff1673ffffffffffffffffffffffffffffffffffffffff163373ffffffffffffffffffffffffffffffffffffffff1614610389576040517f08c379a000000000000000000000000000000000000000000000000000000000815260040161038090610c21565b60405180910390fd5b3373ffffffffffffffffffffffffffffffffffffffff166108fc829081150290604051600060405180830381858888f193505050501580156103cf573d6000803e3d6000fd5b5050565b600047905090565b600034141561041f576040517f08c379a000000000000000000000000000000000000000000000000000000000815260040161041690610c01565b60405180910390fd5b3073ffffffffffffffffffffffffffffffffffffffff166108fc349081150290604051600060405180830381858888f19350505050158015610465573d6000803e3d6000fd5b50600160003373ffffffffffffffffffffffffffffffffffffffff1673ffffffffffffffffffffffffffffffffffffffff16815260200190815260200160002060405180606001604052803481526020018381526020018473ffffffffffffffffffffffffffffffffffffffff168152509080600181540180825580915050600190039060005260206000209060030201600090919091909150600082015181600001556020820151816001015560408201518160020160006101000a81548173ffffffffffffffffffffffffffffffffffffffff021916908373ffffffffffffffffffffffffffffffffffffffff160217905550505060026000828152602001908152602001600020339080600181540180825580915050600190039060005260206000200160009091909190916101000a81548173ffffffffffffffffffffffffffffffffffffffff021916908373ffffffffffffffffffffffffffffffffffffffff1602179055505050565b60008054906101000a900473ffffffffffffffffffffffffffffffffffffffff1673ffffffffffffffffffffffffffffffffffffffff163373ffffffffffffffffffffffffffffffffffffffff1614610662576040517f08c379a000000000000000000000000000000000000000000000000000000000815260040161065990610c21565b60405180910390fd5b600080600080600160008773ffffffffffffffffffffffffffffffffffffffff1673ffffffffffffffffffffffffffffffffffffffff16815260200190815260200160002080549050905060005b818110156107c7576000600160008973ffffffffffffffffffffffffffffffffffffffff1673ffffffffffffffffffffffffffffffffffffffff168152602001908152602001600020828154811061070b5761070a610d8a565b5b906000526020600020906003020160405180606001604052908160008201548152602001600182015481526020016002820160009054906101000a900473ffffffffffffffffffffffffffffffffffffffff1673ffffffffffffffffffffffffffffffffffffffff1673ffffffffffffffffffffffffffffffffffffffff1681525050905086816020015114156107b3578060000151955080604001519450819350506107c7565b5080806107bf90610d12565b9150506106b0565b50600160008773ffffffffffffffffffffffffffffffffffffffff1673ffffffffffffffffffffffffffffffffffffffff168152602001908152602001600020828154811061081957610818610d8a565b5b906000526020600020906003020160008082016000905560018201600090556002820160006101000a81549073ffffffffffffffffffffffffffffffffffffffff021916905550508273ffffffffffffffffffffffffffffffffffffffff166108fc859081150290604051600060405180830381858888f193505050501580156108a7573d6000803e3d6000fd5b50505050505050565b600260205281600052604060002081815481106108cc57600080fd5b906000526020600020016000915091509054906101000a900473ffffffffffffffffffffffffffffffffffffffff1681565b600080600160008473ffffffffffffffffffffffffffffffffffffffff1673ffffffffffffffffffffffffffffffffffffffff16815260200190815260200160002080549050905080915050919050565b6000341415610993576040517f08c379a000000000000000000000000000000000000000000000000000000000815260040161098a90610c41565b60405180910390fd5b3073ffffffffffffffffffffffffffffffffffffffff166108fc349081150290604051600060405180830381858888f193505050501580156109d9573d6000803e3d6000fd5b50565b6000813590506109eb81610e5f565b92915050565b600081359050610a0081610e76565b92915050565b600081359050610a1581610e8d565b92915050565b600060208284031215610a3157610a30610db9565b5b6000610a3f848285016109dc565b91505092915050565b60008060408385031215610a5f57610a5e610db9565b5b6000610a6d858286016109f1565b9250506020610a7e85828601610a06565b9150509250929050565b60008060408385031215610a9f57610a9e610db9565b5b6000610aad858286016109dc565b9250506020610abe85828601610a06565b9150509250929050565b600060208284031215610ade57610add610db9565b5b6000610aec84828501610a06565b91505092915050565b60008060408385031215610b0c57610b0b610db9565b5b6000610b1a85828601610a06565b9250506020610b2b85828601610a06565b9150509250929050565b610b3e81610cd6565b82525050565b610b4d81610cc4565b82525050565b6000610b60602383610cb3565b9150610b6b82610dbe565b604082019050919050565b6000610b83601d83610cb3565b9150610b8e82610e0d565b602082019050919050565b6000610ba6601883610cb3565b9150610bb182610e36565b602082019050919050565b610bc581610d08565b82525050565b6000602082019050610be06000830184610b44565b92915050565b6000602082019050610bfb6000830184610b35565b92915050565b60006020820190508181036000830152610c1a81610b53565b9050919050565b60006020820190508181036000830152610c3a81610b76565b9050919050565b60006020820190508181036000830152610c5a81610b99565b9050919050565b6000602082019050610c766000830184610bbc565b92915050565b6000606082019050610c916000830186610bbc565b610c9e6020830185610bbc565b610cab6040830184610b35565b949350505050565b600082825260208201905092915050565b6000610ccf82610ce8565b9050919050565b6000610ce182610ce8565b9050919050565b600073ffffffffffffffffffffffffffffffffffffffff82169050919050565b6000819050919050565b6000610d1d82610d08565b91507fffffffffffffffffffffffffffffffffffffffffffffffffffffffffffffffff821415610d5057610d4f610d5b565b5b600182019050919050565b7f4e487b7100000000000000000000000000000000000000000000000000000000600052601160045260246000fd5b7f4e487b7100000000000000000000000000000000000000000000000000000000600052603260045260246000fd5b600080fd5b7f596f75206e65656420746f2073656e642045544820746f20627579206120736b60008201527f696e210000000000000000000000000000000000000000000000000000000000602082015250565b7f4f6e6c7920746865206f776e65722063616e2063616c6c20746869732e000000600082015250565b7f5573656c65737320746f206465706f7369742030204554480000000000000000600082015250565b610e6881610cc4565b8114610e7357600080fd5b50565b610e7f81610cd6565b8114610e8a57600080fd5b50565b610e9681610d08565b8114610ea157600080fd5b5056fea26469706673582212209c70789e8245f8a0bc0f89e5ba1e25daacf899120b0856d450ac15128e91741564736f6c63430008060033",
  "immutableReferences": {},
  "source": "// SPDX-License-Identifier: MIT\npragma solidity ^0.8.6;\n\ncontract DefiMarket {\n    address payable public minter;\n\n    struct TradeOffer {\n        uint256 priceInWei;\n        uint256 listingId;\n        address payable ethAddrOfSellers;\n    }\n\n    mapping(address => TradeOffer[]) public buyerPendingPurchases;\n\n    mapping(uint256 => address[]) public listingIdToBuyersAddress;\n\n    constructor() {\n        minter = payable(msg.sender);\n    }\n\n    function wakeup(address payable buyer, uint256 listingId) public payable {\n        require(msg.sender == minter, \"Only the owner can call this.\");\n\n        uint256 amountToSend = 0;\n        address payable receiver = payable(address(0));\n        uint256 itemIndex = 0;\n\n        uint256 length = buyerPendingPurchases[buyer].length;\n        for (uint256 i = 0; i < length; i++) {\n            TradeOffer memory offer = buyerPendingPurchases[buyer][i];\n            if (offer.listingId == listingId) {\n               amountToSend = offer.priceInWei; \n               receiver = offer.ethAddrOfSellers;\n               itemIndex = i;\n               break;\n            }\n        }\n\n        delete buyerPendingPurchases[buyer][itemIndex];\n\n        receiver.transfer(amountToSend);\n    }\n\n    // TODO(marco): remove trade offer\n    // What do we do when an other trade offer is already there for an item? can we have more than one? do people need to cancel them or we return the money after 7 days?\n    // TODO(marco): validate duplicate offer\n    function addTradeOffer(address payable ethAddressOfSeller, uint256 listingId)\n        public\n        payable\n    {\n        require(msg.value != 0, \"You need to send ETH to buy a skin!\");\n\n        payable(address(this)).transfer(msg.value);\n\n        buyerPendingPurchases[msg.sender].push(TradeOffer({priceInWei: msg.value, listingId: listingId, ethAddrOfSellers: ethAddressOfSeller}));\n\n        listingIdToBuyersAddress[listingId].push(msg.sender);\n    }\n\n    function getNumberOfPendingPurchasesForBuyer(address buyer) public view returns (uint)\n    {\n        uint length = buyerPendingPurchases[buyer].length;\n        return length;\n    }\n\n    function getNumberOfBuyingOfferForListingId(uint256 listingId) public view returns (uint)\n    {\n        uint length = listingIdToBuyersAddress[listingId].length;\n        return length;\n    }\n\n    function withdraw(uint256 amount) public payable {\n        require(msg.sender == minter, \"Only the owner can call this.\");\n\n        payable(msg.sender).transfer(amount);\n    }\n\n    function getContractBalance() public view returns (uint256) {\n        return address(this).balance;\n    }\n\n    function deposit() public payable {\n        require(msg.value != 0, \"Useless to deposit 0 ETH\");\n\n        payable(address(this)).transfer(msg.value);\n    }\n\n    receive() external payable {}\n}\n",
  "sourcePath": "/home/marc-olivier/Projects/market/packages/smart-contracts/contracts/DefiMarket.sol",
  "compiler": {
    "name": "solc",
    "version": "0.8.6+commit.11564f7e.Emscripten.clang"
  },
  "schemaVersion": "3.4.1",
  "updatedAt": "2021-07-28T01:02:08.950Z",
  "devdoc": {
    "kind": "dev",
    "methods": {},
    "version": 1
  },
  "userdoc": {
    "kind": "user",
    "methods": {},
    "version": 1
  }
}