{
  "contractName": "DefiMarket",
  "abi": [
    {
      "inputs": [],
      "stateMutability": "nonpayable",
      "type": "constructor"
    },
    {
      "inputs": [
        {
          "internalType": "address",
          "name": "",
          "type": "address"
        },
        {
          "internalType": "uint256",
          "name": "",
          "type": "uint256"
        }
      ],
      "name": "buyerPendingPurchases",
      "outputs": [
        {
          "internalType": "uint256",
          "name": "priceInWei",
          "type": "uint256"
        },
        {
          "internalType": "uint256",
          "name": "listingId",
          "type": "uint256"
        },
        {
          "internalType": "address payable",
          "name": "ethAddrOfSellers",
          "type": "address"
        }
      ],
      "stateMutability": "view",
      "type": "function"
    },
    {
      "inputs": [
        {
          "internalType": "uint256",
          "name": "",
          "type": "uint256"
        },
        {
          "internalType": "uint256",
          "name": "",
          "type": "uint256"
        }
      ],
      "name": "listingIdToBuyersAddress",
      "outputs": [
        {
          "internalType": "address",
          "name": "",
          "type": "address"
        }
      ],
      "stateMutability": "view",
      "type": "function"
    },
    {
      "inputs": [],
      "name": "minter",
      "outputs": [
        {
          "internalType": "address payable",
          "name": "",
          "type": "address"
        }
      ],
      "stateMutability": "view",
      "type": "function"
    },
    {
      "stateMutability": "payable",
      "type": "receive"
    },
    {
      "inputs": [
        {
          "internalType": "address payable",
          "name": "buyer",
          "type": "address"
        },
        {
          "internalType": "uint256",
          "name": "listingId",
          "type": "uint256"
        }
      ],
      "name": "wakeup",
      "outputs": [],
      "stateMutability": "payable",
      "type": "function"
    },
    {
      "inputs": [
        {
          "internalType": "address payable",
          "name": "ethAddressOfSeller",
          "type": "address"
        },
        {
          "internalType": "uint256",
          "name": "listingId",
          "type": "uint256"
        }
      ],
      "name": "addTradeOffer",
      "outputs": [],
      "stateMutability": "payable",
      "type": "function"
    },
    {
      "inputs": [
        {
          "internalType": "address",
          "name": "buyer",
          "type": "address"
        }
      ],
      "name": "getNumberOfPendingPurchasesForBuyer",
      "outputs": [
        {
          "internalType": "uint256",
          "name": "",
          "type": "uint256"
        }
      ],
      "stateMutability": "view",
      "type": "function"
    },
    {
      "inputs": [
        {
          "internalType": "uint256",
          "name": "listingId",
          "type": "uint256"
        }
      ],
      "name": "getNumberOfBuyingOfferForListingId",
      "outputs": [
        {
          "internalType": "uint256",
          "name": "",
          "type": "uint256"
        }
      ],
      "stateMutability": "view",
      "type": "function"
    },
    {
      "inputs": [],
      "name": "getContractBalance",
      "outputs": [
        {
          "internalType": "uint256",
          "name": "",
          "type": "uint256"
        }
      ],
      "stateMutability": "view",
      "type": "function"
    }
  ],
  "bytecode": "0x608060405234801561001057600080fd5b50336000806101000a81548173ffffffffffffffffffffffffffffffffffffffff021916908373ffffffffffffffffffffffffffffffffffffffff160217905550610e38806100606000396000f3fe60806040526004361061007f5760003560e01c806372d5f36d1161004e57806372d5f36d1461015d57806374d73980146101795780639f7478c514610195578063cdaa3820146101d257610086565b8063075461721461008b5780630d6f4984146100b6578063119f70a1146100f55780636f9fb98a1461013257610086565b3661008657005b600080fd5b34801561009757600080fd5b506100a061020f565b6040516100ad9190610b1e565b60405180910390f35b3480156100c257600080fd5b506100dd60048036038101906100d891906109c0565b610233565b6040516100ec93929190610bb4565b60405180910390f35b34801561010157600080fd5b5061011c60048036038101906101179190610a00565b61029a565b6040516101299190610b99565b60405180910390f35b34801561013e57600080fd5b506101476102bf565b6040516101549190610b99565b60405180910390f35b61017760048036038101906101729190610980565b6102c7565b005b610193600480360381019061018e9190610980565b610599565b005b3480156101a157600080fd5b506101bc60048036038101906101b79190610a2d565b610875565b6040516101c99190610b03565b60405180910390f35b3480156101de57600080fd5b506101f960048036038101906101f49190610953565b6108c3565b6040516102069190610b99565b60405180910390f35b60008054906101000a900473ffffffffffffffffffffffffffffffffffffffff1681565b6001602052816000526040600020818154811061024f57600080fd5b9060005260206000209060030201600091509150508060000154908060010154908060020160009054906101000a900473ffffffffffffffffffffffffffffffffffffffff16905083565b6000806002600084815260200190815260200160002080549050905080915050919050565b600047905090565b600034141561030b576040517f08c379a000000000000000000000000000000000000000000000000000000000815260040161030290610b59565b60405180910390fd5b6000610316336108c3565b905060005b818110156103e257600160003373ffffffffffffffffffffffffffffffffffffffff1673ffffffffffffffffffffffffffffffffffffffff168152602001908152602001600020818154811061037457610373610cc2565b5b9060005260206000209060030201600101548314156103cf5760006103ce576040517f08c379a00000000000000000000000000000000000000000000000000000000081526004016103c590610b39565b60405180910390fd5b5b80806103da90610c4a565b91505061031b565b503073ffffffffffffffffffffffffffffffffffffffff166108fc349081150290604051600060405180830381858888f19350505050158015610429573d6000803e3d6000fd5b50600160003373ffffffffffffffffffffffffffffffffffffffff1673ffffffffffffffffffffffffffffffffffffffff16815260200190815260200160002060405180606001604052803481526020018481526020018573ffffffffffffffffffffffffffffffffffffffff168152509080600181540180825580915050600190039060005260206000209060030201600090919091909150600082015181600001556020820151816001015560408201518160020160006101000a81548173ffffffffffffffffffffffffffffffffffffffff021916908373ffffffffffffffffffffffffffffffffffffffff160217905550505060026000838152602001908152602001600020339080600181540180825580915050600190039060005260206000200160009091909190916101000a81548173ffffffffffffffffffffffffffffffffffffffff021916908373ffffffffffffffffffffffffffffffffffffffff160217905550505050565b60008054906101000a900473ffffffffffffffffffffffffffffffffffffffff1673ffffffffffffffffffffffffffffffffffffffff163373ffffffffffffffffffffffffffffffffffffffff1614610627576040517f08c379a000000000000000000000000000000000000000000000000000000000815260040161061e90610b79565b60405180910390fd5b600080600080600160008773ffffffffffffffffffffffffffffffffffffffff1673ffffffffffffffffffffffffffffffffffffffff16815260200190815260200160002080549050905060005b8181101561078c576000600160008973ffffffffffffffffffffffffffffffffffffffff1673ffffffffffffffffffffffffffffffffffffffff16815260200190815260200160002082815481106106d0576106cf610cc2565b5b906000526020600020906003020160405180606001604052908160008201548152602001600182015481526020016002820160009054906101000a900473ffffffffffffffffffffffffffffffffffffffff1673ffffffffffffffffffffffffffffffffffffffff1673ffffffffffffffffffffffffffffffffffffffff1681525050905086816020015114156107785780600001519550806040015194508193505061078c565b50808061078490610c4a565b915050610675565b50600160008773ffffffffffffffffffffffffffffffffffffffff1673ffffffffffffffffffffffffffffffffffffffff16815260200190815260200160002082815481106107de576107dd610cc2565b5b906000526020600020906003020160008082016000905560018201600090556002820160006101000a81549073ffffffffffffffffffffffffffffffffffffffff021916905550508273ffffffffffffffffffffffffffffffffffffffff166108fc859081150290604051600060405180830381858888f1935050505015801561086c573d6000803e3d6000fd5b50505050505050565b6002602052816000526040600020818154811061089157600080fd5b906000526020600020016000915091509054906101000a900473ffffffffffffffffffffffffffffffffffffffff1681565b600080600160008473ffffffffffffffffffffffffffffffffffffffff1673ffffffffffffffffffffffffffffffffffffffff16815260200190815260200160002080549050905080915050919050565b60008135905061092381610dbd565b92915050565b60008135905061093881610dd4565b92915050565b60008135905061094d81610deb565b92915050565b60006020828403121561096957610968610cf1565b5b600061097784828501610914565b91505092915050565b6000806040838503121561099757610996610cf1565b5b60006109a585828601610929565b92505060206109b68582860161093e565b9150509250929050565b600080604083850312156109d7576109d6610cf1565b5b60006109e585828601610914565b92505060206109f68582860161093e565b9150509250929050565b600060208284031215610a1657610a15610cf1565b5b6000610a248482850161093e565b91505092915050565b60008060408385031215610a4457610a43610cf1565b5b6000610a528582860161093e565b9250506020610a638582860161093e565b9150509250929050565b610a7681610c0e565b82525050565b610a8581610bfc565b82525050565b6000610a98602783610beb565b9150610aa382610cf6565b604082019050919050565b6000610abb602383610beb565b9150610ac682610d45565b604082019050919050565b6000610ade601d83610beb565b9150610ae982610d94565b602082019050919050565b610afd81610c40565b82525050565b6000602082019050610b186000830184610a7c565b92915050565b6000602082019050610b336000830184610a6d565b92915050565b60006020820190508181036000830152610b5281610a8b565b9050919050565b60006020820190508181036000830152610b7281610aae565b9050919050565b60006020820190508181036000830152610b9281610ad1565b9050919050565b6000602082019050610bae6000830184610af4565b92915050565b6000606082019050610bc96000830186610af4565b610bd66020830185610af4565b610be36040830184610a6d565b949350505050565b600082825260208201905092915050565b6000610c0782610c20565b9050919050565b6000610c1982610c20565b9050919050565b600073ffffffffffffffffffffffffffffffffffffffff82169050919050565b6000819050919050565b6000610c5582610c40565b91507fffffffffffffffffffffffffffffffffffffffffffffffffffffffffffffffff821415610c8857610c87610c93565b5b600182019050919050565b7f4e487b7100000000000000000000000000000000000000000000000000000000600052601160045260246000fd5b7f4e487b7100000000000000000000000000000000000000000000000000000000600052603260045260246000fd5b600080fd5b7f5472616465206f6666657220616c726561647920657869737420666f7220746860008201527f6973206974656d00000000000000000000000000000000000000000000000000602082015250565b7f596f75206e65656420746f2073656e642045544820746f20627579206120736b60008201527f696e210000000000000000000000000000000000000000000000000000000000602082015250565b7f4f6e6c7920746865206f776e65722063616e2063616c6c20746869732e000000600082015250565b610dc681610bfc565b8114610dd157600080fd5b50565b610ddd81610c0e565b8114610de857600080fd5b50565b610df481610c40565b8114610dff57600080fd5b5056fea2646970667358221220cb03f0199bb029f5c58e94b2fd806e152b08f6dbc092ade0a7fa9d7697bed46764736f6c63430008060033",
  "immutableReferences": {},
  "source": "// SPDX-License-Identifier: MIT\npragma solidity ^0.8.6;\n\ncontract DefiMarket {\n    address payable public minter;\n\n    struct TradeOffer {\n        uint256 priceInWei;\n        uint256 listingId;\n        address payable ethAddrOfSellers;\n    }\n\n    mapping(address => TradeOffer[]) public buyerPendingPurchases;\n\n    mapping(uint256 => address[]) public listingIdToBuyersAddress;\n\n    constructor() {\n        minter = payable(msg.sender);\n    }\n\n    function wakeup(address payable buyer, uint256 listingId) public payable {\n        require(msg.sender == minter, \"Only the owner can call this.\");\n\n        uint256 amountToSend = 0;\n        address payable receiver = payable(address(0));\n        uint256 itemIndex = 0;\n\n        uint256 length = buyerPendingPurchases[buyer].length;\n        for (uint256 i = 0; i < length; i++) {\n            TradeOffer memory offer = buyerPendingPurchases[buyer][i];\n            if (offer.listingId == listingId) {\n               amountToSend = offer.priceInWei; \n               receiver = offer.ethAddrOfSellers;\n               itemIndex = i;\n               break;\n            }\n        }\n\n        delete buyerPendingPurchases[buyer][itemIndex];\n\n        // TODO(marco): take 2% fees before sending money\n        // put it in a map\n        // mapping (address => uint) public balances;\n        // balances[minter] = 2%;\n        receiver.transfer(amountToSend);\n    }\n\n    // What do we do when an other trade offer is already there for an item? can we have more than one? do people need to cancel them or we return the money after 7 days?\n    // TODO(marco): validate duplicate offer\n    function addTradeOffer(address payable ethAddressOfSeller, uint256 listingId)\n        public\n        payable\n    {\n        require(msg.value != 0, \"You need to send ETH to buy a skin!\");\n\n        uint nbOfPendingPurchases = getNumberOfPendingPurchasesForBuyer(msg.sender);\n        for (uint i = 0; i < nbOfPendingPurchases; i++) {\n            if (listingId == buyerPendingPurchases[msg.sender][i].listingId) {\n                require(false, \"Trade offer already exist for this item\");\n            }\n        } \n\n        payable(address(this)).transfer(msg.value);\n\n        buyerPendingPurchases[msg.sender].push(\n            TradeOffer({priceInWei: msg.value, listingId: listingId, ethAddrOfSellers: ethAddressOfSeller})\n        );\n\n        listingIdToBuyersAddress[listingId].push(msg.sender);\n    }\n\n    function getNumberOfPendingPurchasesForBuyer(address buyer) public view returns (uint)\n    {\n        uint length = buyerPendingPurchases[buyer].length;\n        return length;\n    }\n\n    function getNumberOfBuyingOfferForListingId(uint256 listingId) public view returns (uint)\n    {\n        uint length = listingIdToBuyersAddress[listingId].length;\n        return length;\n    }\n\n    //function withdraw(uint256 amount) public payable {\n    //    require(msg.sender == minter, \"Only the owner can call this.\");\n\n    //    payable(msg.sender).transfer(amount);\n    //}\n\n    function getContractBalance() public view returns (uint256) {\n        return address(this).balance;\n    }\n\n    receive() external payable {}\n}\n",
  "sourcePath": "/home/marc-olivier/Projects/market/packages/smart-contracts/contracts/DefiMarket.sol",
  "compiler": {
    "name": "solc",
    "version": "0.8.6+commit.11564f7e.Emscripten.clang"
  },
  "schemaVersion": "3.4.1",
  "updatedAt": "2021-08-04T17:58:31.204Z",
  "devdoc": {
    "kind": "dev",
    "methods": {},
    "version": 1
  },
  "userdoc": {
    "kind": "user",
    "methods": {},
    "version": 1
  }
}