{
  "contractName": "DefiMarket",
  "abi": [
    {
      "inputs": [],
      "stateMutability": "nonpayable",
      "type": "constructor"
    },
    {
      "inputs": [
        {
          "internalType": "address",
          "name": "",
          "type": "address"
        }
      ],
      "name": "availableBalances",
      "outputs": [
        {
          "internalType": "uint256",
          "name": "",
          "type": "uint256"
        }
      ],
      "stateMutability": "view",
      "type": "function"
    },
    {
      "inputs": [
        {
          "internalType": "address",
          "name": "",
          "type": "address"
        },
        {
          "internalType": "uint256",
          "name": "",
          "type": "uint256"
        }
      ],
      "name": "buyerPendingPurchases",
      "outputs": [
        {
          "internalType": "uint256",
          "name": "priceInWei",
          "type": "uint256"
        },
        {
          "internalType": "uint256",
          "name": "listingId",
          "type": "uint256"
        },
        {
          "internalType": "address payable",
          "name": "ethAddrOfSellers",
          "type": "address"
        }
      ],
      "stateMutability": "view",
      "type": "function"
    },
    {
      "inputs": [
        {
          "internalType": "uint256",
          "name": "",
          "type": "uint256"
        },
        {
          "internalType": "uint256",
          "name": "",
          "type": "uint256"
        }
      ],
      "name": "listingIdToBuyersAddress",
      "outputs": [
        {
          "internalType": "address",
          "name": "",
          "type": "address"
        }
      ],
      "stateMutability": "view",
      "type": "function"
    },
    {
      "inputs": [],
      "name": "minter",
      "outputs": [
        {
          "internalType": "address payable",
          "name": "",
          "type": "address"
        }
      ],
      "stateMutability": "view",
      "type": "function"
    },
    {
      "stateMutability": "payable",
      "type": "receive"
    },
    {
      "inputs": [
        {
          "internalType": "address payable",
          "name": "buyer",
          "type": "address"
        },
        {
          "internalType": "uint256",
          "name": "listingId",
          "type": "uint256"
        }
      ],
      "name": "wakeup",
      "outputs": [],
      "stateMutability": "payable",
      "type": "function"
    },
    {
      "inputs": [
        {
          "internalType": "address payable",
          "name": "ethAddressOfSeller",
          "type": "address"
        },
        {
          "internalType": "uint256",
          "name": "listingId",
          "type": "uint256"
        }
      ],
      "name": "addTradeOffer",
      "outputs": [],
      "stateMutability": "payable",
      "type": "function"
    },
    {
      "inputs": [
        {
          "internalType": "address",
          "name": "buyer",
          "type": "address"
        }
      ],
      "name": "getNumberOfPendingPurchasesForBuyer",
      "outputs": [
        {
          "internalType": "uint256",
          "name": "",
          "type": "uint256"
        }
      ],
      "stateMutability": "view",
      "type": "function"
    },
    {
      "inputs": [
        {
          "internalType": "uint256",
          "name": "listingId",
          "type": "uint256"
        }
      ],
      "name": "getNumberOfBuyingOfferForListingId",
      "outputs": [
        {
          "internalType": "uint256",
          "name": "",
          "type": "uint256"
        }
      ],
      "stateMutability": "view",
      "type": "function"
    },
    {
      "inputs": [
        {
          "internalType": "uint256",
          "name": "amount",
          "type": "uint256"
        }
      ],
      "name": "withdrawMyAvailableBalance",
      "outputs": [],
      "stateMutability": "payable",
      "type": "function"
    },
    {
      "inputs": [],
      "name": "getContractBalance",
      "outputs": [
        {
          "internalType": "uint256",
          "name": "",
          "type": "uint256"
        }
      ],
      "stateMutability": "view",
      "type": "function"
    }
  ],
  "bytecode": "0x6080604052600360005534801561001557600080fd5b5033600160006101000a81548173ffffffffffffffffffffffffffffffffffffffff021916908373ffffffffffffffffffffffffffffffffffffffff16021790555061121b806100666000396000f3fe6080604052600436106100955760003560e01c806374d739801161005957806374d739801461018f578063782aec11146101ab5780639f7478c5146101c7578063cdaa382014610204578063dc3774b3146102415761009c565b806307546172146100a15780630d6f4984146100cc578063119f70a11461010b5780636f9fb98a1461014857806372d5f36d146101735761009c565b3661009c57005b600080fd5b3480156100ad57600080fd5b506100b661027e565b6040516100c39190610d4e565b60405180910390f35b3480156100d857600080fd5b506100f360048036038101906100ee9190610bcd565b6102a4565b60405161010293929190610e04565b60405180910390f35b34801561011757600080fd5b50610132600480360381019061012d9190610c0d565b61030b565b60405161013f9190610de9565b60405180910390f35b34801561015457600080fd5b5061015d610330565b60405161016a9190610de9565b60405180910390f35b61018d60048036038101906101889190610b8d565b610338565b005b6101a960048036038101906101a49190610b8d565b61060a565b005b6101c560048036038101906101c09190610c0d565b61099f565b005b3480156101d357600080fd5b506101ee60048036038101906101e99190610c3a565b610a6a565b6040516101fb9190610d33565b60405180910390f35b34801561021057600080fd5b5061022b60048036038101906102269190610b60565b610ab8565b6040516102389190610de9565b60405180910390f35b34801561024d57600080fd5b5061026860048036038101906102639190610b60565b610b09565b6040516102759190610de9565b60405180910390f35b600160009054906101000a900473ffffffffffffffffffffffffffffffffffffffff1681565b600360205281600052604060002081815481106102c057600080fd5b9060005260206000209060030201600091509150508060000154908060010154908060020160009054906101000a900473ffffffffffffffffffffffffffffffffffffffff16905083565b6000806004600084815260200190815260200160002080549050905080915050919050565b600047905090565b600034141561037c576040517f08c379a000000000000000000000000000000000000000000000000000000000815260040161037390610da9565b60405180910390fd5b600061038733610ab8565b905060005b8181101561045357600360003373ffffffffffffffffffffffffffffffffffffffff1673ffffffffffffffffffffffffffffffffffffffff16815260200190815260200160002081815481106103e5576103e4611056565b5b90600052602060002090600302016001015483141561044057600061043f576040517f08c379a000000000000000000000000000000000000000000000000000000000815260040161043690610d89565b60405180910390fd5b5b808061044b90610faf565b91505061038c565b503073ffffffffffffffffffffffffffffffffffffffff166108fc349081150290604051600060405180830381858888f1935050505015801561049a573d6000803e3d6000fd5b50600360003373ffffffffffffffffffffffffffffffffffffffff1673ffffffffffffffffffffffffffffffffffffffff16815260200190815260200160002060405180606001604052803481526020018481526020018573ffffffffffffffffffffffffffffffffffffffff168152509080600181540180825580915050600190039060005260206000209060030201600090919091909150600082015181600001556020820151816001015560408201518160020160006101000a81548173ffffffffffffffffffffffffffffffffffffffff021916908373ffffffffffffffffffffffffffffffffffffffff160217905550505060046000838152602001908152602001600020339080600181540180825580915050600190039060005260206000200160009091909190916101000a81548173ffffffffffffffffffffffffffffffffffffffff021916908373ffffffffffffffffffffffffffffffffffffffff160217905550505050565b600160009054906101000a900473ffffffffffffffffffffffffffffffffffffffff1673ffffffffffffffffffffffffffffffffffffffff163373ffffffffffffffffffffffffffffffffffffffff161461069a576040517f08c379a000000000000000000000000000000000000000000000000000000000815260040161069190610dc9565b60405180910390fd5b600080600080600360008773ffffffffffffffffffffffffffffffffffffffff1673ffffffffffffffffffffffffffffffffffffffff16815260200190815260200160002080549050905060005b818110156107ff576000600360008973ffffffffffffffffffffffffffffffffffffffff1673ffffffffffffffffffffffffffffffffffffffff168152602001908152602001600020828154811061074357610742611056565b5b906000526020600020906003020160405180606001604052908160008201548152602001600182015481526020016002820160009054906101000a900473ffffffffffffffffffffffffffffffffffffffff1673ffffffffffffffffffffffffffffffffffffffff1673ffffffffffffffffffffffffffffffffffffffff1681525050905086816020015114156107eb578060000151955080604001519450819350506107ff565b5080806107f790610faf565b9150506106e8565b50600360008773ffffffffffffffffffffffffffffffffffffffff1673ffffffffffffffffffffffffffffffffffffffff168152602001908152602001600020828154811061085157610850611056565b5b906000526020600020906003020160008082016000905560018201600090556002820160006101000a81549073ffffffffffffffffffffffffffffffffffffffff0219169055505060006064600054866108ab9190610ed3565b6108b59190610ea2565b9050600081866108c59190610f2d565b905080600260008773ffffffffffffffffffffffffffffffffffffffff1673ffffffffffffffffffffffffffffffffffffffff16815260200190815260200160002060008282546109169190610e4c565b925050819055508160026000600160009054906101000a900473ffffffffffffffffffffffffffffffffffffffff1673ffffffffffffffffffffffffffffffffffffffff1673ffffffffffffffffffffffffffffffffffffffff168152602001908152602001600020600082825461098e9190610e4c565b925050819055505050505050505050565b80600260003373ffffffffffffffffffffffffffffffffffffffff1673ffffffffffffffffffffffffffffffffffffffff1681526020019081526020016000205411610a20576040517f08c379a0000000000000000000000000000000000000000000000000000000008152600401610a1790610d69565b60405180910390fd5b3373ffffffffffffffffffffffffffffffffffffffff166108fc829081150290604051600060405180830381858888f19350505050158015610a66573d6000803e3d6000fd5b5050565b60046020528160005260406000208181548110610a8657600080fd5b906000526020600020016000915091509054906101000a900473ffffffffffffffffffffffffffffffffffffffff1681565b600080600360008473ffffffffffffffffffffffffffffffffffffffff1673ffffffffffffffffffffffffffffffffffffffff16815260200190815260200160002080549050905080915050919050565b60026020528060005260406000206000915090505481565b600081359050610b30816111a0565b92915050565b600081359050610b45816111b7565b92915050565b600081359050610b5a816111ce565b92915050565b600060208284031215610b7657610b75611085565b5b6000610b8484828501610b21565b91505092915050565b60008060408385031215610ba457610ba3611085565b5b6000610bb285828601610b36565b9250506020610bc385828601610b4b565b9150509250929050565b60008060408385031215610be457610be3611085565b5b6000610bf285828601610b21565b9250506020610c0385828601610b4b565b9150509250929050565b600060208284031215610c2357610c22611085565b5b6000610c3184828501610b4b565b91505092915050565b60008060408385031215610c5157610c50611085565b5b6000610c5f85828601610b4b565b9250506020610c7085828601610b4b565b9150509250929050565b610c8381610f73565b82525050565b610c9281610f61565b82525050565b6000610ca5602583610e3b565b9150610cb08261108a565b604082019050919050565b6000610cc8602783610e3b565b9150610cd3826110d9565b604082019050919050565b6000610ceb602383610e3b565b9150610cf682611128565b604082019050919050565b6000610d0e601d83610e3b565b9150610d1982611177565b602082019050919050565b610d2d81610fa5565b82525050565b6000602082019050610d486000830184610c89565b92915050565b6000602082019050610d636000830184610c7a565b92915050565b60006020820190508181036000830152610d8281610c98565b9050919050565b60006020820190508181036000830152610da281610cbb565b9050919050565b60006020820190508181036000830152610dc281610cde565b9050919050565b60006020820190508181036000830152610de281610d01565b9050919050565b6000602082019050610dfe6000830184610d24565b92915050565b6000606082019050610e196000830186610d24565b610e266020830185610d24565b610e336040830184610c7a565b949350505050565b600082825260208201905092915050565b6000610e5782610fa5565b9150610e6283610fa5565b9250827fffffffffffffffffffffffffffffffffffffffffffffffffffffffffffffffff03821115610e9757610e96610ff8565b5b828201905092915050565b6000610ead82610fa5565b9150610eb883610fa5565b925082610ec857610ec7611027565b5b828204905092915050565b6000610ede82610fa5565b9150610ee983610fa5565b9250817fffffffffffffffffffffffffffffffffffffffffffffffffffffffffffffffff0483118215151615610f2257610f21610ff8565b5b828202905092915050565b6000610f3882610fa5565b9150610f4383610fa5565b925082821015610f5657610f55610ff8565b5b828203905092915050565b6000610f6c82610f85565b9050919050565b6000610f7e82610f85565b9050919050565b600073ffffffffffffffffffffffffffffffffffffffff82169050919050565b6000819050919050565b6000610fba82610fa5565b91507fffffffffffffffffffffffffffffffffffffffffffffffffffffffffffffffff821415610fed57610fec610ff8565b5b600182019050919050565b7f4e487b7100000000000000000000000000000000000000000000000000000000600052601160045260246000fd5b7f4e487b7100000000000000000000000000000000000000000000000000000000600052601260045260246000fd5b7f4e487b7100000000000000000000000000000000000000000000000000000000600052603260045260246000fd5b600080fd5b7f63616e2774207769746864726177206d6f7265207468616e20796f757220626160008201527f6c616e6365000000000000000000000000000000000000000000000000000000602082015250565b7f5472616465206f6666657220616c726561647920657869737420666f7220746860008201527f6973206974656d00000000000000000000000000000000000000000000000000602082015250565b7f596f75206e65656420746f2073656e642045544820746f20627579206120736b60008201527f696e210000000000000000000000000000000000000000000000000000000000602082015250565b7f4f6e6c7920746865206f776e65722063616e2063616c6c20746869732e000000600082015250565b6111a981610f61565b81146111b457600080fd5b50565b6111c081610f73565b81146111cb57600080fd5b50565b6111d781610fa5565b81146111e257600080fd5b5056fea2646970667358221220b65c193763a4ca4efd18a2ebe4014c5dde9d241bcf6961a492b4cbbd5dae045264736f6c63430008060033",
  "immutableReferences": {},
  "source": "// SPDX-License-Identifier: MIT\npragma solidity ^0.8.6;\n\ncontract DefiMarket {\n\n    uint feesPercentage = 3;\n\n    address payable public minter;\n\n    mapping(address => uint256) public availableBalances;\n\n    struct TradeOffer {\n        uint256 priceInWei;\n        uint256 listingId;\n        address payable ethAddrOfSellers;\n    }\n\n    mapping(address => TradeOffer[]) public buyerPendingPurchases;\n\n    mapping(uint256 => address[]) public listingIdToBuyersAddress;\n\n    constructor() {\n        minter = payable(msg.sender);\n    }\n\n    function wakeup(address payable buyer, uint256 listingId) public payable {\n        require(msg.sender == minter, \"Only the owner can call this.\");\n\n        uint256 amountToSend = 0;\n        address payable receiver = payable(address(0));\n        uint256 itemIndex = 0;\n\n        uint256 length = buyerPendingPurchases[buyer].length;\n        for (uint256 i = 0; i < length; i++) {\n            TradeOffer memory offer = buyerPendingPurchases[buyer][i];\n            if (offer.listingId == listingId) {\n               amountToSend = offer.priceInWei; \n               receiver = offer.ethAddrOfSellers;\n               itemIndex = i;\n               break;\n            }\n        }\n\n        delete buyerPendingPurchases[buyer][itemIndex];\n\n        // Put the money in the good balance\n        // And take the fees\n        uint feesAmount = amountToSend * feesPercentage / 100;\n        uint amountWithfeesRemoved = amountToSend - feesAmount;\n        availableBalances[receiver] += amountWithfeesRemoved;\n        availableBalances[minter] += feesAmount;\n    }\n\n    // What do we do when an other trade offer is already there for an item? can we have more than one? do people need to cancel them or we return the money after 7 days?\n    function addTradeOffer(address payable ethAddressOfSeller, uint256 listingId)\n        public\n        payable\n    {\n        require(msg.value != 0, \"You need to send ETH to buy a skin!\");\n\n        uint nbOfPendingPurchases = getNumberOfPendingPurchasesForBuyer(msg.sender);\n        for (uint i = 0; i < nbOfPendingPurchases; i++) {\n            if (listingId == buyerPendingPurchases[msg.sender][i].listingId) {\n                require(false, \"Trade offer already exist for this item\");\n            }\n        } \n\n        payable(address(this)).transfer(msg.value);\n\n        buyerPendingPurchases[msg.sender].push(\n            TradeOffer({priceInWei: msg.value, listingId: listingId, ethAddrOfSellers: ethAddressOfSeller})\n        );\n\n        listingIdToBuyersAddress[listingId].push(msg.sender);\n    }\n\n    function getNumberOfPendingPurchasesForBuyer(address buyer) public view returns (uint)\n    {\n        uint length = buyerPendingPurchases[buyer].length;\n        return length;\n    }\n\n    function getNumberOfBuyingOfferForListingId(uint256 listingId) public view returns (uint)\n    {\n        uint length = listingIdToBuyersAddress[listingId].length;\n        return length;\n    }\n\n    function withdrawMyAvailableBalance(uint256 amount) public payable {\n        require(availableBalances[msg.sender] > amount, \"can't withdraw more than your balance\");\n\n        payable(address(msg.sender)).transfer(amount);\n    }\n\n    function getContractBalance() public view returns (uint256) {\n        return address(this).balance;\n    }\n\n    receive() external payable {}\n}\n",
  "sourcePath": "/home/marc-olivier/Projects/market/packages/smart-contracts/contracts/DefiMarket.sol",
  "compiler": {
    "name": "solc",
    "version": "0.8.6+commit.11564f7e.Emscripten.clang"
  },
  "schemaVersion": "3.4.1",
  "updatedAt": "2021-08-06T15:39:11.849Z",
  "devdoc": {
    "kind": "dev",
    "methods": {},
    "version": 1
  },
  "userdoc": {
    "kind": "user",
    "methods": {},
    "version": 1
  }
}