{
  "contractName": "DefiMarket",
  "abi": [
    {
      "inputs": [],
      "stateMutability": "nonpayable",
      "type": "constructor"
    },
    {
      "inputs": [
        {
          "internalType": "address",
          "name": "",
          "type": "address"
        }
      ],
      "name": "ethAddrOfSellers",
      "outputs": [
        {
          "internalType": "address payable",
          "name": "",
          "type": "address"
        }
      ],
      "stateMutability": "view",
      "type": "function"
    },
    {
      "inputs": [
        {
          "internalType": "address",
          "name": "",
          "type": "address"
        }
      ],
      "name": "listingIds",
      "outputs": [
        {
          "internalType": "uint256",
          "name": "",
          "type": "uint256"
        }
      ],
      "stateMutability": "view",
      "type": "function"
    },
    {
      "inputs": [
        {
          "internalType": "uint256",
          "name": "",
          "type": "uint256"
        },
        {
          "internalType": "uint256",
          "name": "",
          "type": "uint256"
        }
      ],
      "name": "listingIdsWithBuyingOffers",
      "outputs": [
        {
          "internalType": "address",
          "name": "",
          "type": "address"
        }
      ],
      "stateMutability": "view",
      "type": "function"
    },
    {
      "inputs": [],
      "name": "minter",
      "outputs": [
        {
          "internalType": "address payable",
          "name": "",
          "type": "address"
        }
      ],
      "stateMutability": "view",
      "type": "function"
    },
    {
      "inputs": [
        {
          "internalType": "address",
          "name": "",
          "type": "address"
        }
      ],
      "name": "priceInWei",
      "outputs": [
        {
          "internalType": "uint256",
          "name": "",
          "type": "uint256"
        }
      ],
      "stateMutability": "view",
      "type": "function"
    },
    {
      "stateMutability": "payable",
      "type": "receive"
    },
    {
      "inputs": [
        {
          "internalType": "address payable",
          "name": "buyer",
          "type": "address"
        }
      ],
      "name": "wakeup",
      "outputs": [],
      "stateMutability": "payable",
      "type": "function"
    },
    {
      "inputs": [
        {
          "internalType": "address payable",
          "name": "receiver",
          "type": "address"
        },
        {
          "internalType": "uint256",
          "name": "listingId",
          "type": "uint256"
        }
      ],
      "name": "addTradeOffer",
      "outputs": [],
      "stateMutability": "payable",
      "type": "function"
    },
    {
      "inputs": [
        {
          "internalType": "uint256",
          "name": "listingId",
          "type": "uint256"
        }
      ],
      "name": "getNumberOfBuyingOfferForListingId",
      "outputs": [
        {
          "internalType": "uint256",
          "name": "",
          "type": "uint256"
        }
      ],
      "stateMutability": "view",
      "type": "function"
    },
    {
      "inputs": [
        {
          "internalType": "uint256",
          "name": "amount",
          "type": "uint256"
        }
      ],
      "name": "withdraw",
      "outputs": [],
      "stateMutability": "payable",
      "type": "function"
    },
    {
      "inputs": [],
      "name": "getContractBalance",
      "outputs": [
        {
          "internalType": "uint256",
          "name": "",
          "type": "uint256"
        }
      ],
      "stateMutability": "view",
      "type": "function"
    },
    {
      "inputs": [],
      "name": "deposit",
      "outputs": [],
      "stateMutability": "payable",
      "type": "function"
    }
  ],
  "bytecode": "0x608060405234801561001057600080fd5b50336000806101000a81548173ffffffffffffffffffffffffffffffffffffffff021916908373ffffffffffffffffffffffffffffffffffffffff160217905550610d99806100606000396000f3fe6080604052600436106100a05760003560e01c80636839a095116100645780636839a095146101895780636f9fb98a146101c657806372d5f36d146101f1578063752982911461020d578063a2e1c58b1461024a578063d0e30db014610287576100a7565b806307546172146100ac578063119f70a1146100d75780632e1a7d4d146101145780633a373d80146101305780634314a9ac1461016d576100a7565b366100a757005b600080fd5b3480156100b857600080fd5b506100c1610291565b6040516100ce9190610b83565b60405180910390f35b3480156100e357600080fd5b506100fe60048036038101906100f99190610a65565b6102b5565b60405161010b9190610bfe565b60405180910390f35b61012e60048036038101906101299190610a65565b6102da565b005b34801561013c57600080fd5b50610157600480360381019061015291906109cb565b6103b2565b6040516101649190610b83565b60405180910390f35b610187600480360381019061018291906109f8565b6103e5565b005b34801561019557600080fd5b506101b060048036038101906101ab91906109cb565b610670565b6040516101bd9190610bfe565b60405180910390f35b3480156101d257600080fd5b506101db610688565b6040516101e89190610bfe565b60405180910390f35b61020b60048036038101906102069190610a25565b610690565b005b34801561021957600080fd5b50610234600480360381019061022f91906109cb565b610899565b6040516102419190610bfe565b60405180910390f35b34801561025657600080fd5b50610271600480360381019061026c9190610a92565b6108b1565b60405161027e9190610b68565b60405180910390f35b61028f6108ff565b005b60008054906101000a900473ffffffffffffffffffffffffffffffffffffffff1681565b6000806004600084815260200190815260200160002080549050905080915050919050565b60008054906101000a900473ffffffffffffffffffffffffffffffffffffffff1673ffffffffffffffffffffffffffffffffffffffff163373ffffffffffffffffffffffffffffffffffffffff1614610368576040517f08c379a000000000000000000000000000000000000000000000000000000000815260040161035f90610bbe565b60405180910390fd5b3373ffffffffffffffffffffffffffffffffffffffff166108fc829081150290604051600060405180830381858888f193505050501580156103ae573d6000803e3d6000fd5b5050565b60036020528060005260406000206000915054906101000a900473ffffffffffffffffffffffffffffffffffffffff1681565b60008054906101000a900473ffffffffffffffffffffffffffffffffffffffff1673ffffffffffffffffffffffffffffffffffffffff163373ffffffffffffffffffffffffffffffffffffffff1614610473576040517f08c379a000000000000000000000000000000000000000000000000000000000815260040161046a90610bbe565b60405180910390fd5b6000600160008373ffffffffffffffffffffffffffffffffffffffff1673ffffffffffffffffffffffffffffffffffffffff1681526020019081526020016000205490506000600360008473ffffffffffffffffffffffffffffffffffffffff1673ffffffffffffffffffffffffffffffffffffffff16815260200190815260200160002060009054906101000a900473ffffffffffffffffffffffffffffffffffffffff1690508073ffffffffffffffffffffffffffffffffffffffff166108fc839081150290604051600060405180830381858888f19350505050158015610561573d6000803e3d6000fd5b506000600160008573ffffffffffffffffffffffffffffffffffffffff1673ffffffffffffffffffffffffffffffffffffffff168152602001908152602001600020819055506000600360008573ffffffffffffffffffffffffffffffffffffffff1673ffffffffffffffffffffffffffffffffffffffff16815260200190815260200160002060006101000a81548173ffffffffffffffffffffffffffffffffffffffff021916908373ffffffffffffffffffffffffffffffffffffffff1602179055506000600260008573ffffffffffffffffffffffffffffffffffffffff1673ffffffffffffffffffffffffffffffffffffffff16815260200190815260200160002081905550505050565b60016020528060005260406000206000915090505481565b600047905090565b60003414156106d4576040517f08c379a00000000000000000000000000000000000000000000000000000000081526004016106cb90610b9e565b60405180910390fd5b3073ffffffffffffffffffffffffffffffffffffffff166108fc349081150290604051600060405180830381858888f1935050505015801561071a573d6000803e3d6000fd5b5034600160003373ffffffffffffffffffffffffffffffffffffffff1673ffffffffffffffffffffffffffffffffffffffff1681526020019081526020016000208190555080600260003373ffffffffffffffffffffffffffffffffffffffff1673ffffffffffffffffffffffffffffffffffffffff1681526020019081526020016000208190555081600360003373ffffffffffffffffffffffffffffffffffffffff1673ffffffffffffffffffffffffffffffffffffffff16815260200190815260200160002060006101000a81548173ffffffffffffffffffffffffffffffffffffffff021916908373ffffffffffffffffffffffffffffffffffffffff16021790555060046000828152602001908152602001600020339080600181540180825580915050600190039060005260206000200160009091909190916101000a81548173ffffffffffffffffffffffffffffffffffffffff021916908373ffffffffffffffffffffffffffffffffffffffff1602179055505050565b60026020528060005260406000206000915090505481565b600460205281600052604060002081815481106108cd57600080fd5b906000526020600020016000915091509054906101000a900473ffffffffffffffffffffffffffffffffffffffff1681565b6000341415610943576040517f08c379a000000000000000000000000000000000000000000000000000000000815260040161093a90610bde565b60405180910390fd5b3073ffffffffffffffffffffffffffffffffffffffff166108fc349081150290604051600060405180830381858888f19350505050158015610989573d6000803e3d6000fd5b50565b60008135905061099b81610d1e565b92915050565b6000813590506109b081610d35565b92915050565b6000813590506109c581610d4c565b92915050565b6000602082840312156109e1576109e0610c78565b5b60006109ef8482850161098c565b91505092915050565b600060208284031215610a0e57610a0d610c78565b5b6000610a1c848285016109a1565b91505092915050565b60008060408385031215610a3c57610a3b610c78565b5b6000610a4a858286016109a1565b9250506020610a5b858286016109b6565b9150509250929050565b600060208284031215610a7b57610a7a610c78565b5b6000610a89848285016109b6565b91505092915050565b60008060408385031215610aa957610aa8610c78565b5b6000610ab7858286016109b6565b9250506020610ac8858286016109b6565b9150509250929050565b610adb81610c3c565b82525050565b610aea81610c2a565b82525050565b6000610afd602383610c19565b9150610b0882610c7d565b604082019050919050565b6000610b20601d83610c19565b9150610b2b82610ccc565b602082019050919050565b6000610b43601883610c19565b9150610b4e82610cf5565b602082019050919050565b610b6281610c6e565b82525050565b6000602082019050610b7d6000830184610ae1565b92915050565b6000602082019050610b986000830184610ad2565b92915050565b60006020820190508181036000830152610bb781610af0565b9050919050565b60006020820190508181036000830152610bd781610b13565b9050919050565b60006020820190508181036000830152610bf781610b36565b9050919050565b6000602082019050610c136000830184610b59565b92915050565b600082825260208201905092915050565b6000610c3582610c4e565b9050919050565b6000610c4782610c4e565b9050919050565b600073ffffffffffffffffffffffffffffffffffffffff82169050919050565b6000819050919050565b600080fd5b7f596f75206e65656420746f2073656e642045544820746f20627579206120736b60008201527f696e210000000000000000000000000000000000000000000000000000000000602082015250565b7f4f6e6c7920746865206f776e65722063616e2063616c6c20746869732e000000600082015250565b7f5573656c65737320746f206465706f7369742030204554480000000000000000600082015250565b610d2781610c2a565b8114610d3257600080fd5b50565b610d3e81610c3c565b8114610d4957600080fd5b50565b610d5581610c6e565b8114610d6057600080fd5b5056fea264697066735822122037d2810440ab2f90c658617e06f445958786e9a03ea1420d0fe21fc6be3a141764736f6c63430008060033",
  "immutableReferences": {},
  "source": "// SPDX-License-Identifier: MIT\npragma solidity ^0.8.6;\n\ncontract DefiMarket {\n    address payable public minter;\n\n    // TODO(marco) create struct for this\n    // TODO(marco) support one than more trade\n    mapping(address => uint256) public priceInWei;\n    mapping(address => uint256) public listingIds;\n    mapping(address => address payable) public ethAddrOfSellers;\n\n    mapping(uint256 => address[]) public listingIdsWithBuyingOffers;\n\n    constructor() {\n        minter = payable(msg.sender);\n    }\n\n    function wakeup(address payable buyer) public payable {\n        require(msg.sender == minter, \"Only the owner can call this.\");\n\n        uint256 amountToSend = priceInWei[buyer];\n        address payable receiver = ethAddrOfSellers[buyer];\n\n        receiver.transfer(amountToSend);\n\n        priceInWei[buyer] = 0;\n        ethAddrOfSellers[buyer] = payable(address(0));\n        listingIds[buyer] = 0;\n    }\n\n    function addTradeOffer(address payable receiver, uint256 listingId)\n        public\n        payable\n    {\n        require(msg.value != 0, \"You need to send ETH to buy a skin!\");\n\n        payable(address(this)).transfer(msg.value);\n\n        priceInWei[msg.sender] = msg.value;\n        listingIds[msg.sender] = listingId;\n        ethAddrOfSellers[msg.sender] = receiver;\n        listingIdsWithBuyingOffers[listingId].push(msg.sender);\n    }\n\n    function getNumberOfBuyingOfferForListingId(uint256 listingId) public view returns (uint)\n    {\n        uint length = listingIdsWithBuyingOffers[listingId].length;\n        return length;\n    }\n\n    function withdraw(uint256 amount) public payable {\n        require(msg.sender == minter, \"Only the owner can call this.\");\n\n        payable(msg.sender).transfer(amount);\n    }\n\n    function getContractBalance() public view returns (uint256) {\n        return address(this).balance;\n    }\n\n    function deposit() public payable {\n        require(msg.value != 0, \"Useless to deposit 0 ETH\");\n\n        payable(address(this)).transfer(msg.value);\n    }\n\n    receive() external payable {}\n}\n",
  "sourcePath": "/home/marc-olivier/Projects/market/packages/smart-contracts/contracts/DefiMarket.sol",
  "compiler": {
    "name": "solc",
    "version": "0.8.6+commit.11564f7e.Emscripten.clang"
  },
  "schemaVersion": "3.4.1",
  "updatedAt": "2021-07-25T15:42:28.776Z",
  "devdoc": {
    "kind": "dev",
    "methods": {},
    "version": 1
  },
  "userdoc": {
    "kind": "user",
    "methods": {},
    "version": 1
  }
}