{
  "contractName": "DefiMarket",
  "abi": [
    {
      "inputs": [],
      "stateMutability": "nonpayable",
      "type": "constructor"
    },
    {
      "inputs": [
        {
          "internalType": "address",
          "name": "",
          "type": "address"
        },
        {
          "internalType": "uint256",
          "name": "",
          "type": "uint256"
        }
      ],
      "name": "buyerPendingPurchases",
      "outputs": [
        {
          "internalType": "uint256",
          "name": "priceInWei",
          "type": "uint256"
        },
        {
          "internalType": "uint256",
          "name": "listingId",
          "type": "uint256"
        },
        {
          "internalType": "address payable",
          "name": "ethAddrOfSellers",
          "type": "address"
        }
      ],
      "stateMutability": "view",
      "type": "function",
      "constant": true
    },
    {
      "inputs": [
        {
          "internalType": "address",
          "name": "",
          "type": "address"
        }
      ],
      "name": "ethAddrOfSellers",
      "outputs": [
        {
          "internalType": "address payable",
          "name": "",
          "type": "address"
        }
      ],
      "stateMutability": "view",
      "type": "function",
      "constant": true
    },
    {
      "inputs": [
        {
          "internalType": "address",
          "name": "",
          "type": "address"
        }
      ],
      "name": "listingIds",
      "outputs": [
        {
          "internalType": "uint256",
          "name": "",
          "type": "uint256"
        }
      ],
      "stateMutability": "view",
      "type": "function",
      "constant": true
    },
    {
      "inputs": [
        {
          "internalType": "uint256",
          "name": "",
          "type": "uint256"
        },
        {
          "internalType": "uint256",
          "name": "",
          "type": "uint256"
        }
      ],
      "name": "listingIdsWithBuyingOffers",
      "outputs": [
        {
          "internalType": "address",
          "name": "",
          "type": "address"
        }
      ],
      "stateMutability": "view",
      "type": "function",
      "constant": true
    },
    {
      "inputs": [],
      "name": "minter",
      "outputs": [
        {
          "internalType": "address payable",
          "name": "",
          "type": "address"
        }
      ],
      "stateMutability": "view",
      "type": "function",
      "constant": true
    },
    {
      "inputs": [
        {
          "internalType": "address",
          "name": "",
          "type": "address"
        }
      ],
      "name": "priceInWei",
      "outputs": [
        {
          "internalType": "uint256",
          "name": "",
          "type": "uint256"
        }
      ],
      "stateMutability": "view",
      "type": "function",
      "constant": true
    },
    {
      "stateMutability": "payable",
      "type": "receive",
      "payable": true
    },
    {
      "inputs": [
        {
          "internalType": "address payable",
          "name": "buyer",
          "type": "address"
        }
      ],
      "name": "wakeup",
      "outputs": [],
      "stateMutability": "payable",
      "type": "function",
      "payable": true
    },
    {
      "inputs": [
        {
          "internalType": "address payable",
          "name": "ethAddressOfSeller",
          "type": "address"
        },
        {
          "internalType": "uint256",
          "name": "listingId",
          "type": "uint256"
        }
      ],
      "name": "addTradeOffer",
      "outputs": [],
      "stateMutability": "payable",
      "type": "function",
      "payable": true
    },
    {
      "inputs": [
        {
          "internalType": "address",
          "name": "buyer",
          "type": "address"
        }
      ],
      "name": "getNumberOfPendingPurchasesForBuyer",
      "outputs": [
        {
          "internalType": "uint256",
          "name": "",
          "type": "uint256"
        }
      ],
      "stateMutability": "view",
      "type": "function",
      "constant": true
    },
    {
      "inputs": [
        {
          "internalType": "uint256",
          "name": "listingId",
          "type": "uint256"
        }
      ],
      "name": "getNumberOfBuyingOfferForListingId",
      "outputs": [
        {
          "internalType": "uint256",
          "name": "",
          "type": "uint256"
        }
      ],
      "stateMutability": "view",
      "type": "function",
      "constant": true
    },
    {
      "inputs": [
        {
          "internalType": "uint256",
          "name": "amount",
          "type": "uint256"
        }
      ],
      "name": "withdraw",
      "outputs": [],
      "stateMutability": "payable",
      "type": "function",
      "payable": true
    },
    {
      "inputs": [],
      "name": "getContractBalance",
      "outputs": [
        {
          "internalType": "uint256",
          "name": "",
          "type": "uint256"
        }
      ],
      "stateMutability": "view",
      "type": "function",
      "constant": true
    },
    {
      "inputs": [],
      "name": "deposit",
      "outputs": [],
      "stateMutability": "payable",
      "type": "function",
      "payable": true
    }
  ],
  "bytecode": "0x608060405234801561001057600080fd5b50336000806101000a81548173ffffffffffffffffffffffffffffffffffffffff021916908373ffffffffffffffffffffffffffffffffffffffff160217905550611060806100606000396000f3fe6080604052600436106100c65760003560e01c80636839a0951161007f57806375298291116100595780637529829114610272578063a2e1c58b146102af578063cdaa3820146102ec578063d0e30db014610329576100cd565b80636839a095146101ee5780636f9fb98a1461022b57806372d5f36d14610256576100cd565b806307546172146100d25780630d6f4984146100fd578063119f70a11461013c5780632e1a7d4d146101795780633a373d80146101955780634314a9ac146101d2576100cd565b366100cd57005b600080fd5b3480156100de57600080fd5b506100e7610333565b6040516100f49190610e13565b60405180910390f35b34801561010957600080fd5b50610124600480360381019061011f9190610cb5565b610357565b60405161013393929190610ea9565b60405180910390f35b34801561014857600080fd5b50610163600480360381019061015e9190610cf5565b6103be565b6040516101709190610e8e565b60405180910390f35b610193600480360381019061018e9190610cf5565b6103e3565b005b3480156101a157600080fd5b506101bc60048036038101906101b79190610c1b565b6104bb565b6040516101c99190610e13565b60405180910390f35b6101ec60048036038101906101e79190610c48565b6104ee565b005b3480156101fa57600080fd5b5061021560048036038101906102109190610c1b565b610779565b6040516102229190610e8e565b60405180910390f35b34801561023757600080fd5b50610240610791565b60405161024d9190610e8e565b60405180910390f35b610270600480360381019061026b9190610c75565b610799565b005b34801561027e57600080fd5b5061029960048036038101906102949190610c1b565b610a98565b6040516102a69190610e8e565b60405180910390f35b3480156102bb57600080fd5b506102d660048036038101906102d19190610d22565b610ab0565b6040516102e39190610df8565b60405180910390f35b3480156102f857600080fd5b50610313600480360381019061030e9190610c1b565b610afe565b6040516103209190610e8e565b60405180910390f35b610331610b4f565b005b60008054906101000a900473ffffffffffffffffffffffffffffffffffffffff1681565b6001602052816000526040600020818154811061037357600080fd5b9060005260206000209060030201600091509150508060000154908060010154908060020160009054906101000a900473ffffffffffffffffffffffffffffffffffffffff16905083565b6000806005600084815260200190815260200160002080549050905080915050919050565b60008054906101000a900473ffffffffffffffffffffffffffffffffffffffff1673ffffffffffffffffffffffffffffffffffffffff163373ffffffffffffffffffffffffffffffffffffffff1614610471576040517f08c379a000000000000000000000000000000000000000000000000000000000815260040161046890610e4e565b60405180910390fd5b3373ffffffffffffffffffffffffffffffffffffffff166108fc829081150290604051600060405180830381858888f193505050501580156104b7573d6000803e3d6000fd5b5050565b60046020528060005260406000206000915054906101000a900473ffffffffffffffffffffffffffffffffffffffff1681565b60008054906101000a900473ffffffffffffffffffffffffffffffffffffffff1673ffffffffffffffffffffffffffffffffffffffff163373ffffffffffffffffffffffffffffffffffffffff161461057c576040517f08c379a000000000000000000000000000000000000000000000000000000000815260040161057390610e4e565b60405180910390fd5b6000600260008373ffffffffffffffffffffffffffffffffffffffff1673ffffffffffffffffffffffffffffffffffffffff1681526020019081526020016000205490506000600460008473ffffffffffffffffffffffffffffffffffffffff1673ffffffffffffffffffffffffffffffffffffffff16815260200190815260200160002060009054906101000a900473ffffffffffffffffffffffffffffffffffffffff1690508073ffffffffffffffffffffffffffffffffffffffff166108fc839081150290604051600060405180830381858888f1935050505015801561066a573d6000803e3d6000fd5b506000600260008573ffffffffffffffffffffffffffffffffffffffff1673ffffffffffffffffffffffffffffffffffffffff168152602001908152602001600020819055506000600460008573ffffffffffffffffffffffffffffffffffffffff1673ffffffffffffffffffffffffffffffffffffffff16815260200190815260200160002060006101000a81548173ffffffffffffffffffffffffffffffffffffffff021916908373ffffffffffffffffffffffffffffffffffffffff1602179055506000600360008573ffffffffffffffffffffffffffffffffffffffff1673ffffffffffffffffffffffffffffffffffffffff16815260200190815260200160002081905550505050565b60026020528060005260406000206000915090505481565b600047905090565b60003414156107dd576040517f08c379a00000000000000000000000000000000000000000000000000000000081526004016107d490610e2e565b60405180910390fd5b3073ffffffffffffffffffffffffffffffffffffffff166108fc349081150290604051600060405180830381858888f19350505050158015610823573d6000803e3d6000fd5b50600160003373ffffffffffffffffffffffffffffffffffffffff1673ffffffffffffffffffffffffffffffffffffffff16815260200190815260200160002060405180606001604052803481526020018381526020018473ffffffffffffffffffffffffffffffffffffffff168152509080600181540180825580915050600190039060005260206000209060030201600090919091909150600082015181600001556020820151816001015560408201518160020160006101000a81548173ffffffffffffffffffffffffffffffffffffffff021916908373ffffffffffffffffffffffffffffffffffffffff160217905550505034600260003373ffffffffffffffffffffffffffffffffffffffff1673ffffffffffffffffffffffffffffffffffffffff1681526020019081526020016000208190555080600360003373ffffffffffffffffffffffffffffffffffffffff1673ffffffffffffffffffffffffffffffffffffffff1681526020019081526020016000208190555081600460003373ffffffffffffffffffffffffffffffffffffffff1673ffffffffffffffffffffffffffffffffffffffff16815260200190815260200160002060006101000a81548173ffffffffffffffffffffffffffffffffffffffff021916908373ffffffffffffffffffffffffffffffffffffffff16021790555060056000828152602001908152602001600020339080600181540180825580915050600190039060005260206000200160009091909190916101000a81548173ffffffffffffffffffffffffffffffffffffffff021916908373ffffffffffffffffffffffffffffffffffffffff1602179055505050565b60036020528060005260406000206000915090505481565b60056020528160005260406000208181548110610acc57600080fd5b906000526020600020016000915091509054906101000a900473ffffffffffffffffffffffffffffffffffffffff1681565b600080600160008473ffffffffffffffffffffffffffffffffffffffff1673ffffffffffffffffffffffffffffffffffffffff16815260200190815260200160002080549050905080915050919050565b6000341415610b93576040517f08c379a0000000000000000000000000000000000000000000000000000000008152600401610b8a90610e6e565b60405180910390fd5b3073ffffffffffffffffffffffffffffffffffffffff166108fc349081150290604051600060405180830381858888f19350505050158015610bd9573d6000803e3d6000fd5b50565b600081359050610beb81610fe5565b92915050565b600081359050610c0081610ffc565b92915050565b600081359050610c1581611013565b92915050565b600060208284031215610c3157610c30610f3f565b5b6000610c3f84828501610bdc565b91505092915050565b600060208284031215610c5e57610c5d610f3f565b5b6000610c6c84828501610bf1565b91505092915050565b60008060408385031215610c8c57610c8b610f3f565b5b6000610c9a85828601610bf1565b9250506020610cab85828601610c06565b9150509250929050565b60008060408385031215610ccc57610ccb610f3f565b5b6000610cda85828601610bdc565b9250506020610ceb85828601610c06565b9150509250929050565b600060208284031215610d0b57610d0a610f3f565b5b6000610d1984828501610c06565b91505092915050565b60008060408385031215610d3957610d38610f3f565b5b6000610d4785828601610c06565b9250506020610d5885828601610c06565b9150509250929050565b610d6b81610f03565b82525050565b610d7a81610ef1565b82525050565b6000610d8d602383610ee0565b9150610d9882610f44565b604082019050919050565b6000610db0601d83610ee0565b9150610dbb82610f93565b602082019050919050565b6000610dd3601883610ee0565b9150610dde82610fbc565b602082019050919050565b610df281610f35565b82525050565b6000602082019050610e0d6000830184610d71565b92915050565b6000602082019050610e286000830184610d62565b92915050565b60006020820190508181036000830152610e4781610d80565b9050919050565b60006020820190508181036000830152610e6781610da3565b9050919050565b60006020820190508181036000830152610e8781610dc6565b9050919050565b6000602082019050610ea36000830184610de9565b92915050565b6000606082019050610ebe6000830186610de9565b610ecb6020830185610de9565b610ed86040830184610d62565b949350505050565b600082825260208201905092915050565b6000610efc82610f15565b9050919050565b6000610f0e82610f15565b9050919050565b600073ffffffffffffffffffffffffffffffffffffffff82169050919050565b6000819050919050565b600080fd5b7f596f75206e65656420746f2073656e642045544820746f20627579206120736b60008201527f696e210000000000000000000000000000000000000000000000000000000000602082015250565b7f4f6e6c7920746865206f776e65722063616e2063616c6c20746869732e000000600082015250565b7f5573656c65737320746f206465706f7369742030204554480000000000000000600082015250565b610fee81610ef1565b8114610ff957600080fd5b50565b61100581610f03565b811461101057600080fd5b50565b61101c81610f35565b811461102757600080fd5b5056fea2646970667358221220c71173533e0b6177b235791aa8d75560e950af21968af51c7f2e52134e38b53c64736f6c63430008060033",
  "immutableReferences": {},
  "source": "// SPDX-License-Identifier: MIT\npragma solidity ^0.8.6;\n\ncontract DefiMarket {\n    address payable public minter;\n\n    struct TradeOffer {\n        uint256 priceInWei;\n        uint256 listingId;\n        address payable ethAddrOfSellers;\n    }\n\n    mapping(address => TradeOffer[]) public buyerPendingPurchases;\n\n    // TODO(marco) create struct for this\n    // TODO(marco) support one than more trade\n    mapping(address => uint256) public priceInWei;\n    mapping(address => uint256) public listingIds;\n    mapping(address => address payable) public ethAddrOfSellers;\n\n    mapping(uint256 => address[]) public listingIdsWithBuyingOffers;\n\n    constructor() {\n        minter = payable(msg.sender);\n    }\n\n    function wakeup(address payable buyer) public payable {\n        require(msg.sender == minter, \"Only the owner can call this.\");\n\n        uint256 amountToSend = priceInWei[buyer];\n        address payable receiver = ethAddrOfSellers[buyer];\n\n        receiver.transfer(amountToSend);\n\n        priceInWei[buyer] = 0;\n        ethAddrOfSellers[buyer] = payable(address(0));\n        listingIds[buyer] = 0;\n    }\n\n    function addTradeOffer(address payable ethAddressOfSeller, uint256 listingId)\n        public\n        payable\n    {\n        require(msg.value != 0, \"You need to send ETH to buy a skin!\");\n\n        payable(address(this)).transfer(msg.value);\n\n        buyerPendingPurchases[msg.sender].push(TradeOffer({priceInWei: msg.value, listingId: listingId, ethAddrOfSellers: ethAddressOfSeller}));\n\n        priceInWei[msg.sender] = msg.value;\n        listingIds[msg.sender] = listingId;\n        ethAddrOfSellers[msg.sender] = ethAddressOfSeller;\n        listingIdsWithBuyingOffers[listingId].push(msg.sender);\n    }\n\n    function getNumberOfPendingPurchasesForBuyer(address buyer) public view returns (uint)\n    {\n        uint length = buyerPendingPurchases[buyer].length;\n        return length;\n    }\n\n    function getNumberOfBuyingOfferForListingId(uint256 listingId) public view returns (uint)\n    {\n        uint length = listingIdsWithBuyingOffers[listingId].length;\n        return length;\n    }\n\n    function withdraw(uint256 amount) public payable {\n        require(msg.sender == minter, \"Only the owner can call this.\");\n\n        payable(msg.sender).transfer(amount);\n    }\n\n    function getContractBalance() public view returns (uint256) {\n        return address(this).balance;\n    }\n\n    function deposit() public payable {\n        require(msg.value != 0, \"Useless to deposit 0 ETH\");\n\n        payable(address(this)).transfer(msg.value);\n    }\n\n    receive() external payable {}\n}\n",
  "sourcePath": "/home/marc-olivier/Projects/market/packages/smart-contracts/contracts/DefiMarket.sol",
  "compiler": {
    "name": "solc",
    "version": "0.8.6+commit.11564f7e.Emscripten.clang"
  },
  "schemaVersion": "3.4.1",
  "updatedAt": "2021-07-25T16:26:45.479Z",
  "networkType": "ethereum",
  "devdoc": {
    "kind": "dev",
    "methods": {},
    "version": 1
  },
  "userdoc": {
    "kind": "user",
    "methods": {},
    "version": 1
  }
}