{
  "contractName": "DefiMarket",
  "abi": [
    {
      "inputs": [],
      "stateMutability": "nonpayable",
      "type": "constructor"
    },
    {
      "anonymous": false,
      "inputs": [
        {
          "indexed": true,
          "internalType": "address",
          "name": "_from",
          "type": "address"
        },
        {
          "indexed": true,
          "internalType": "address",
          "name": "_to",
          "type": "address"
        },
        {
          "indexed": false,
          "internalType": "uint256",
          "name": "_value",
          "type": "uint256"
        }
      ],
      "name": "Withdraw",
      "type": "event"
    },
    {
      "inputs": [
        {
          "internalType": "address",
          "name": "",
          "type": "address"
        }
      ],
      "name": "availableBalances",
      "outputs": [
        {
          "internalType": "uint256",
          "name": "",
          "type": "uint256"
        }
      ],
      "stateMutability": "view",
      "type": "function",
      "constant": true
    },
    {
      "inputs": [
        {
          "internalType": "address",
          "name": "",
          "type": "address"
        },
        {
          "internalType": "uint256",
          "name": "",
          "type": "uint256"
        }
      ],
      "name": "buyerPendingPurchases",
      "outputs": [
        {
          "internalType": "uint256",
          "name": "priceInWei",
          "type": "uint256"
        },
        {
          "internalType": "uint256",
          "name": "listingId",
          "type": "uint256"
        },
        {
          "internalType": "address payable",
          "name": "ethAddrOfSellers",
          "type": "address"
        }
      ],
      "stateMutability": "view",
      "type": "function",
      "constant": true
    },
    {
      "inputs": [
        {
          "internalType": "uint256",
          "name": "",
          "type": "uint256"
        },
        {
          "internalType": "uint256",
          "name": "",
          "type": "uint256"
        }
      ],
      "name": "listingIdToBuyersAddress",
      "outputs": [
        {
          "internalType": "address",
          "name": "",
          "type": "address"
        }
      ],
      "stateMutability": "view",
      "type": "function",
      "constant": true
    },
    {
      "inputs": [],
      "name": "minter",
      "outputs": [
        {
          "internalType": "address payable",
          "name": "",
          "type": "address"
        }
      ],
      "stateMutability": "view",
      "type": "function",
      "constant": true
    },
    {
      "stateMutability": "payable",
      "type": "receive",
      "payable": true
    },
    {
      "inputs": [
        {
          "internalType": "address payable",
          "name": "buyer",
          "type": "address"
        },
        {
          "internalType": "uint256",
          "name": "listingId",
          "type": "uint256"
        }
      ],
      "name": "wakeup",
      "outputs": [],
      "stateMutability": "payable",
      "type": "function",
      "payable": true
    },
    {
      "inputs": [
        {
          "internalType": "address payable",
          "name": "ethAddressOfSeller",
          "type": "address"
        },
        {
          "internalType": "uint256",
          "name": "listingId",
          "type": "uint256"
        }
      ],
      "name": "addTradeOffer",
      "outputs": [],
      "stateMutability": "payable",
      "type": "function",
      "payable": true
    },
    {
      "inputs": [
        {
          "internalType": "address",
          "name": "buyer",
          "type": "address"
        }
      ],
      "name": "getNumberOfPendingPurchasesForBuyer",
      "outputs": [
        {
          "internalType": "uint256",
          "name": "",
          "type": "uint256"
        }
      ],
      "stateMutability": "view",
      "type": "function",
      "constant": true
    },
    {
      "inputs": [
        {
          "internalType": "uint256",
          "name": "listingId",
          "type": "uint256"
        }
      ],
      "name": "getNumberOfBuyingOfferForListingId",
      "outputs": [
        {
          "internalType": "uint256",
          "name": "",
          "type": "uint256"
        }
      ],
      "stateMutability": "view",
      "type": "function",
      "constant": true
    },
    {
      "inputs": [],
      "name": "withdrawMyAvailableBalance",
      "outputs": [],
      "stateMutability": "payable",
      "type": "function",
      "payable": true
    },
    {
      "inputs": [],
      "name": "getContractBalance",
      "outputs": [
        {
          "internalType": "uint256",
          "name": "",
          "type": "uint256"
        }
      ],
      "stateMutability": "view",
      "type": "function",
      "constant": true
    }
  ],
  "bytecode": "0x6080604052600360005534801561001557600080fd5b5033600160006101000a81548173ffffffffffffffffffffffffffffffffffffffff021916908373ffffffffffffffffffffffffffffffffffffffff160217905550611323806100666000396000f3fe6080604052600436106100955760003560e01c806374d739801161005957806374d739801461018f5780639f7478c5146101ab578063a184d12e146101e8578063cdaa3820146101f2578063dc3774b31461022f5761009c565b806307546172146100a15780630d6f4984146100cc578063119f70a11461010b5780636f9fb98a1461014857806372d5f36d146101735761009c565b3661009c57005b600080fd5b3480156100ad57600080fd5b506100b661026c565b6040516100c39190610e56565b60405180910390f35b3480156100d857600080fd5b506100f360048036038101906100ee9190610cd5565b610292565b60405161010293929190610f0c565b60405180910390f35b34801561011757600080fd5b50610132600480360381019061012d9190610d15565b6102f9565b60405161013f9190610ef1565b60405180910390f35b34801561015457600080fd5b5061015d61031e565b60405161016a9190610ef1565b60405180910390f35b61018d60048036038101906101889190610c95565b610326565b005b6101a960048036038101906101a49190610c95565b61056a565b005b3480156101b757600080fd5b506101d260048036038101906101cd9190610d42565b61091e565b6040516101df9190610e3b565b60405180910390f35b6101f061096c565b005b3480156101fe57600080fd5b5061021960048036038101906102149190610c68565b610b82565b6040516102269190610ef1565b60405180910390f35b34801561023b57600080fd5b5061025660048036038101906102519190610c68565b610bd3565b6040516102639190610ef1565b60405180910390f35b600160009054906101000a900473ffffffffffffffffffffffffffffffffffffffff1681565b600360205281600052604060002081815481106102ae57600080fd5b9060005260206000209060030201600091509150508060000154908060010154908060020160009054906101000a900473ffffffffffffffffffffffffffffffffffffffff16905083565b6000806004600084815260200190815260200160002080549050905080915050919050565b600047905090565b600034141561036a576040517f08c379a000000000000000000000000000000000000000000000000000000000815260040161036190610e91565b60405180910390fd5b6000610375826102f9565b146103b5576040517f08c379a00000000000000000000000000000000000000000000000000000000081526004016103ac90610eb1565b60405180910390fd5b3073ffffffffffffffffffffffffffffffffffffffff166108fc349081150290604051600060405180830381858888f193505050501580156103fb573d6000803e3d6000fd5b50600360003373ffffffffffffffffffffffffffffffffffffffff1673ffffffffffffffffffffffffffffffffffffffff16815260200190815260200160002060405180606001604052803481526020018381526020018473ffffffffffffffffffffffffffffffffffffffff168152509080600181540180825580915050600190039060005260206000209060030201600090919091909150600082015181600001556020820151816001015560408201518160020160006101000a81548173ffffffffffffffffffffffffffffffffffffffff021916908373ffffffffffffffffffffffffffffffffffffffff160217905550505060046000828152602001908152602001600020339080600181540180825580915050600190039060005260206000200160009091909190916101000a81548173ffffffffffffffffffffffffffffffffffffffff021916908373ffffffffffffffffffffffffffffffffffffffff1602179055505050565b600160009054906101000a900473ffffffffffffffffffffffffffffffffffffffff1673ffffffffffffffffffffffffffffffffffffffff163373ffffffffffffffffffffffffffffffffffffffff16146105fa576040517f08c379a00000000000000000000000000000000000000000000000000000000081526004016105f190610ed1565b60405180910390fd5b600080600080600360008773ffffffffffffffffffffffffffffffffffffffff1673ffffffffffffffffffffffffffffffffffffffff16815260200190815260200160002080549050905060005b8181101561075f576000600360008973ffffffffffffffffffffffffffffffffffffffff1673ffffffffffffffffffffffffffffffffffffffff16815260200190815260200160002082815481106106a3576106a261115e565b5b906000526020600020906003020160405180606001604052908160008201548152602001600182015481526020016002820160009054906101000a900473ffffffffffffffffffffffffffffffffffffffff1673ffffffffffffffffffffffffffffffffffffffff1673ffffffffffffffffffffffffffffffffffffffff16815250509050868160200151141561074b5780600001519550806040015194508193505061075f565b508080610757906110b7565b915050610648565b5060046000868152602001908152602001600020600061077f9190610beb565b600360008773ffffffffffffffffffffffffffffffffffffffff1673ffffffffffffffffffffffffffffffffffffffff16815260200190815260200160002082815481106107d0576107cf61115e565b5b906000526020600020906003020160008082016000905560018201600090556002820160006101000a81549073ffffffffffffffffffffffffffffffffffffffff02191690555050600060646000548661082a9190610fdb565b6108349190610faa565b9050600081866108449190611035565b905080600260008773ffffffffffffffffffffffffffffffffffffffff1673ffffffffffffffffffffffffffffffffffffffff16815260200190815260200160002060008282546108959190610f54565b925050819055508160026000600160009054906101000a900473ffffffffffffffffffffffffffffffffffffffff1673ffffffffffffffffffffffffffffffffffffffff1673ffffffffffffffffffffffffffffffffffffffff168152602001908152602001600020600082825461090d9190610f54565b925050819055505050505050505050565b6004602052816000526040600020818154811061093a57600080fd5b906000526020600020016000915091509054906101000a900473ffffffffffffffffffffffffffffffffffffffff1681565b6000600260003373ffffffffffffffffffffffffffffffffffffffff1673ffffffffffffffffffffffffffffffffffffffff1681526020019081526020016000205414156109ef576040517f08c379a00000000000000000000000000000000000000000000000000000000081526004016109e690610e71565b60405180910390fd5b3373ffffffffffffffffffffffffffffffffffffffff16600160009054906101000a900473ffffffffffffffffffffffffffffffffffffffff1673ffffffffffffffffffffffffffffffffffffffff167f9b1bfa7fa9ee420a16e124f794c35ac9f90472acc99140eb2f6447c714cad8eb600260003373ffffffffffffffffffffffffffffffffffffffff1673ffffffffffffffffffffffffffffffffffffffff16815260200190815260200160002054604051610aad9190610ef1565b60405180910390a33373ffffffffffffffffffffffffffffffffffffffff166108fc600260003373ffffffffffffffffffffffffffffffffffffffff1673ffffffffffffffffffffffffffffffffffffffff168152602001908152602001600020549081150290604051600060405180830381858888f19350505050158015610b3a573d6000803e3d6000fd5b506000600260003373ffffffffffffffffffffffffffffffffffffffff1673ffffffffffffffffffffffffffffffffffffffff16815260200190815260200160002081905550565b600080600360008473ffffffffffffffffffffffffffffffffffffffff1673ffffffffffffffffffffffffffffffffffffffff16815260200190815260200160002080549050905080915050919050565b60026020528060005260406000206000915090505481565b5080546000825590600052602060002090810190610c099190610c0c565b50565b5b80821115610c25576000816000905550600101610c0d565b5090565b600081359050610c38816112a8565b92915050565b600081359050610c4d816112bf565b92915050565b600081359050610c62816112d6565b92915050565b600060208284031215610c7e57610c7d61118d565b5b6000610c8c84828501610c29565b91505092915050565b60008060408385031215610cac57610cab61118d565b5b6000610cba85828601610c3e565b9250506020610ccb85828601610c53565b9150509250929050565b60008060408385031215610cec57610ceb61118d565b5b6000610cfa85828601610c29565b9250506020610d0b85828601610c53565b9150509250929050565b600060208284031215610d2b57610d2a61118d565b5b6000610d3984828501610c53565b91505092915050565b60008060408385031215610d5957610d5861118d565b5b6000610d6785828601610c53565b9250506020610d7885828601610c53565b9150509250929050565b610d8b8161107b565b82525050565b610d9a81611069565b82525050565b6000610dad603a83610f43565b9150610db882611192565b604082019050919050565b6000610dd0602383610f43565b9150610ddb826111e1565b604082019050919050565b6000610df3602783610f43565b9150610dfe82611230565b604082019050919050565b6000610e16601d83610f43565b9150610e218261127f565b602082019050919050565b610e35816110ad565b82525050565b6000602082019050610e506000830184610d91565b92915050565b6000602082019050610e6b6000830184610d82565b92915050565b60006020820190508181036000830152610e8a81610da0565b9050919050565b60006020820190508181036000830152610eaa81610dc3565b9050919050565b60006020820190508181036000830152610eca81610de6565b9050919050565b60006020820190508181036000830152610eea81610e09565b9050919050565b6000602082019050610f066000830184610e2c565b92915050565b6000606082019050610f216000830186610e2c565b610f2e6020830185610e2c565b610f3b6040830184610d82565b949350505050565b600082825260208201905092915050565b6000610f5f826110ad565b9150610f6a836110ad565b9250827fffffffffffffffffffffffffffffffffffffffffffffffffffffffffffffffff03821115610f9f57610f9e611100565b5b828201905092915050565b6000610fb5826110ad565b9150610fc0836110ad565b925082610fd057610fcf61112f565b5b828204905092915050565b6000610fe6826110ad565b9150610ff1836110ad565b9250817fffffffffffffffffffffffffffffffffffffffffffffffffffffffffffffffff048311821515161561102a57611029611100565b5b828202905092915050565b6000611040826110ad565b915061104b836110ad565b92508282101561105e5761105d611100565b5b828203905092915050565b60006110748261108d565b9050919050565b60006110868261108d565b9050919050565b600073ffffffffffffffffffffffffffffffffffffffff82169050919050565b6000819050919050565b60006110c2826110ad565b91507fffffffffffffffffffffffffffffffffffffffffffffffffffffffffffffffff8214156110f5576110f4611100565b5b600182019050919050565b7f4e487b7100000000000000000000000000000000000000000000000000000000600052601160045260246000fd5b7f4e487b7100000000000000000000000000000000000000000000000000000000600052601260045260246000fd5b7f4e487b7100000000000000000000000000000000000000000000000000000000600052603260045260246000fd5b600080fd5b7f596f75206e65656420746f20686176652045544820696e20796f75722061766160008201527f696c61626c652062616c616e636520746f20636173686f757421000000000000602082015250565b7f596f75206e65656420746f2073656e642045544820746f20627579206120736b60008201527f696e210000000000000000000000000000000000000000000000000000000000602082015250565b7f546865726520697320616c726561647920616e206f6666657220666f7220746860008201527f6973206974656d00000000000000000000000000000000000000000000000000602082015250565b7f4f6e6c7920746865206f776e65722063616e2063616c6c20746869732e000000600082015250565b6112b181611069565b81146112bc57600080fd5b50565b6112c88161107b565b81146112d357600080fd5b50565b6112df816110ad565b81146112ea57600080fd5b5056fea2646970667358221220129a31924f708b43a3ac1a6d390b7675f6a06e360fc0e5f85844f04ef2c0ed1e64736f6c63430008060033",
  "immutableReferences": {},
  "source": "// SPDX-License-Identifier: MIT\npragma solidity ^0.8.6;\n\ncontract DefiMarket {\n\n    uint feesPercentage = 3;\n\n    address payable public minter;\n\n    mapping(address => uint256) public availableBalances;\n\n    struct TradeOffer {\n        uint256 priceInWei;\n        uint256 listingId;\n        address payable ethAddrOfSellers;\n    }\n\n    mapping(address => TradeOffer[]) public buyerPendingPurchases;\n\n    mapping(uint256 => address[]) public listingIdToBuyersAddress;\n\n\n    event Withdraw(address indexed _from, address indexed _to, uint _value);\n\n\n    constructor() {\n        minter = payable(msg.sender);\n    }\n\n    function wakeup(address payable buyer, uint256 listingId) public payable {\n        require(msg.sender == minter, \"Only the owner can call this.\");\n\n        uint256 amountToSend = 0;\n        address payable receiver = payable(address(0));\n        uint256 itemIndex = 0;\n\n        uint256 length = buyerPendingPurchases[buyer].length;\n        for (uint256 i = 0; i < length; i++) {\n            TradeOffer memory offer = buyerPendingPurchases[buyer][i];\n            if (offer.listingId == listingId) {\n               amountToSend = offer.priceInWei; \n               receiver = offer.ethAddrOfSellers;\n               itemIndex = i;\n               break;\n            }\n        }\n\n\n        // refund when oders have an offer but not accepted\n        // TODO(marco) remove others offer before deleting here and money in their balance\n        delete listingIdToBuyersAddress[listingId];\n        delete buyerPendingPurchases[buyer][itemIndex];\n\n        // Put the money in the good balance\n        // And take the fees\n        uint feesAmount = amountToSend * feesPercentage / 100;\n        uint amountWithfeesRemoved = amountToSend - feesAmount;\n    \n        availableBalances[receiver] += amountWithfeesRemoved;\n        availableBalances[minter] += feesAmount;\n    }\n\n    // Idea for later(marco) if the is no msg.value and if there is a parameter with the wei to use for the item than take it in the balance\n    function addTradeOffer(address payable ethAddressOfSeller, uint256 listingId)\n        public\n        payable\n    {\n        require(msg.value != 0, \"You need to send ETH to buy a skin!\");\n\n        require(getNumberOfBuyingOfferForListingId(listingId) == 0, \"There is already an offer for this item\");\n\n        //uint nbOfPendingPurchases = getNumberOfPendingPurchasesForBuyer(msg.sender);\n        //for (uint i = 0; i < nbOfPendingPurchases; i++) {\n        //    if (listingId == buyerPendingPurchases[msg.sender][i].listingId) {\n        //        require(false, \"Trade offer already exist for this item\");\n        //    }\n        //} \n\n        payable(address(this)).transfer(msg.value);\n\n        buyerPendingPurchases[msg.sender].push(\n            TradeOffer({priceInWei: msg.value, listingId: listingId, ethAddrOfSellers: ethAddressOfSeller})\n        );\n\n        listingIdToBuyersAddress[listingId].push(msg.sender);\n    }\n\n    function getNumberOfPendingPurchasesForBuyer(address buyer) public view returns (uint)\n    {\n        uint length = buyerPendingPurchases[buyer].length;\n        return length;\n    }\n\n    function getNumberOfBuyingOfferForListingId(uint256 listingId) public view returns (uint)\n    {\n        uint length = listingIdToBuyersAddress[listingId].length;\n        return length;\n    }\n\n    // TODO fix this\n    function withdrawMyAvailableBalance() public payable {\n        require(availableBalances[msg.sender] != 0, \"You need to have ETH in your available balance to cashout!\");\n        emit Withdraw(minter, msg.sender, availableBalances[msg.sender]);\n\n        payable(msg.sender).transfer(availableBalances[msg.sender]);\n        availableBalances[msg.sender] = 0;\n    }\n\n    function getContractBalance() public view returns (uint256) {\n        return address(this).balance;\n    }\n\n    receive() external payable {}\n}\n",
  "sourcePath": "/home/marc-olivier/Projects/market/packages/smart-contracts/contracts/DefiMarket.sol",
  "compiler": {
    "name": "solc",
    "version": "0.8.6+commit.11564f7e.Emscripten.clang"
  },
  "schemaVersion": "3.4.1",
  "updatedAt": "2021-09-08T00:24:57.617Z",
  "networkType": "ethereum",
  "devdoc": {
    "kind": "dev",
    "methods": {},
    "version": 1
  },
  "userdoc": {
    "kind": "user",
    "methods": {},
    "version": 1
  }
}